:100000000C94F8040C943F050C943F050C943F05A8
:100010000C943F050C943F050C943F050C943F0550
:100020000C943F050C943F050C94DD290C94AF2AE9
:100030000C94A6220C943F050C943F050C943F05AC
:100040000C943F050C943F050C943F050C943F0520
:100050000C943F050C940E230C943F050C943F0523
:100060000C943F050C943F050C943F050C943F0500
:100070000C943F050C943F050C943F050C943F05F0
:100080000C943F050C943F050C943F050C943F05E0
:100090000C943F050C943F050C943F050C943F05D0
:1000A0000C943F050C943F050C943F054F075107F6
:1000B0005C0753075507570759075B075E0760073B
:1000C00062076D076407660768076A076C076F07B2
:1000D00094189418C618C6181319761A761A761A30
:1000E0003319D019E119E119421A4B1A761A6F1A0D
:1000F000F41AF41A061B061BFD1A061B061B061B28
:10010000F41AF41A021B061B061B021B1C2B432BA2
:10011000352C432B352C8F2BB22B352C082C172C40
:100120002B0014001A000800150017001C0018000E
:100130000C00120013002A0029000400160007001A
:1001400009000A000B000D000E000F003300340000
:10015000E1001D001B000600190005001100100041
:10016000360037003800280003510151E000E2005A
:10017000E3002C00000002515000510052004F00DB
:100180003500000000000000000000002F023002D7
:10019000000000000000000000000000000000005F
:1001A00000000000260227020000000000000000FE
:1001B00000000000000000000000000036023702CE
:1001C000000000000000000000000000000000002F
:1001D000000000000000000000000000000000001F
:1001E00035001E001F0020002100220023002400F3
:1001F0002500260027002D0031003A003B003C007E
:100200003D003E003F0040004100000000002E0085
:10021000E1000000000000000000AE00AD00AA00F8
:10022000A900000000000000000000000000000025
:100230000000A80000000100E1000000AC00AB00DD
:10024000C25CC35CC45CCB5CCC5C00000000000002
:1002500000000000000000000000C55CC65C00005B
:10026000000000000000000000000000000000008E
:100270000000C75CC85C0000000000000000000037
:1002800000000000000000000100C95CCA5C000022
:100290000000000000000000B60000000000B700F1
:1002A00044454255473A2064697361626C65642E27
:1002B0000A0044454255473A20656E61626C6564A8
:1002C0002E0A000A002530313662003A200025301F
:1002D0003258000A722F63203031323334353637CA
:1002E00038394142434445460A007267626C696787
:1002F00068742074696D65722064697361626C65ED
:100300002E0A007267626C696768742074696D6593
:100310007220656E61626C65642E0A007267626CA1
:10032000696768742073657420687376205B4E4F2C
:10033000454550524F4D5D3A2025752C25752C258D
:10034000750A007267626C6967687420736574204F
:10035000687376205B454550524F4D5D3A202575B8
:100360002C25752C25750A007267626C69676874A4
:10037000207261696E626F7720736574206873768E
:100380003A2025642C25642C25642C25750A0072DE
:1003900067626C696768742064697361626C652068
:1003A0005B454550524F4D5D3A207267626C6967FC
:1003B00068745F636F6E6669672E656E61626C65F7
:1003C000203D2025750A007267626C696768742099
:1003D000656E61626C65205B454550524F4D5D3ADC
:1003E000207267626C696768745F636F6E666967C5
:1003F0002E656E61626C65203D2025750A0072676E
:10040000626C6967687420746F67676C65205B4510
:100410004550524F4D5D3A207267626C696768744F
:100420005F636F6E6669672E656E61626C65203D05
:100430002025750A007267626C69676874206D6FA9
:100440006465205B4E4F454550524F4D5D3A202527
:10045000750A007267626C69676874206D6F646505
:10046000205B454550524F4D5D3A2025750A00727C
:1004700067626C696768745F696E6974207267622D
:100480006C696768745F636F6E6669672E6D6F6411
:1004900065203D20302E20577269746520646566A2
:1004A00061756C742076616C75657320746F20457E
:1004B0004550524F4D2E0A007267626C696768742E
:1004C0005F696E6974206565636F6E666967206930
:1004D00073206E6F7420656E61626C65642E0A0015
:1004E0007267626C696768745F696E69742073749F
:1004F000617274210A007267626C696768745F696F
:100500006E69742063616C6C65642E0A00726762A8
:100510006C696768745F636F6E6669672E73706578
:100520006564203D2025640A007267626C69676813
:10053000745F636F6E6669672E76616C203D20255F
:10054000640A007267626C696768745F636F6E66E5
:1005500069672E736174203D2025640A007267620A
:100560006C696768745F636F6E6669672E6875652E
:10057000203D2025640A007267686C696768745FB3
:10058000636F6E6669672E6D6F6465203D2025641C
:100590000A007267626C696768745F636F6E666990
:1005A000672E656E61626C65203D2025640A0072CD
:1005B00067626C696768745F636F6E666967204520
:1005C0004550524F4D3A0A0000047F3F1F643214D9
:1005D000643214783C1E1E140A052223252628297D
:1005E0002A2C2D2F3032333536383A3B3D3E4042AF
:1005F000434547494A4C4E5051535557595A5C5EF2
:100600006062646668696B6D6F71737577797B7D05
:100610007F81838587898A8C8E90929496989A9C04
:100620009E9FA1A3A5A7A8AAACAEAFB1B3B4B6B81C
:10063000B9BBBCBEBFC1C2C3C5C6C7C9CACBCCCD7E
:10064000CED0D1D2D2D3D4D5D6D7D7D8D9D9DADA59
:10065000DBDBDBDCDCDCDCDCDDDDDDDDDCDCDCDCD9
:10066000DCDBDBDBDADAD9D9D8D7D7D6D5D4D3D20D
:10067000D2D1D0CECDCCCBCAC9C7C6C5C3C2C1BFEB
:10068000BEBCBBB9B8B6B4B3B1AFAEACAAA8A7A54F
:10069000A3A19F9E9C9A98969492908E8C8A89870B
:1006A0008583817F7D7B79777573716F6D6B6968E9
:1006B000666462605E5C5A5957555351504E4C4ABD
:1006C0004947454342403E3D3B3A38363533323068
:1006D0002F2D2C2A292826252322FFAA7F554000CA
:1006E0000000000000000000000101010101010103
:1006F00001010202020202020202030303030303D6
:10070000030404040404050505050506060606069B
:1007100007070707080808080909090A0A0A0B0B4E
:100720000B0C0C0C0D0D0D0E0E0E0F0F10101011EA
:100730001112121313141415151616171718181969
:10074000191A1A1B1C1C1D1D1E1F1F2021212223CC
:100750002324252526272828292A2B2C2C2D2E2F0B
:1007600030313132333435363738393A3B3C3D3E1F
:100770003F404142434445464748494B4C4D4E4F0C
:1007800050525354555758595A5C5D5E60616364CA
:100790006567686A6B6C6E6F7172747677797A7C54
:1007A0007D7F8182848687898B8D8E9092949597A8
:1007B000999B9D9FA1A2A4A6A8AAACAEB0B2B4B6C4
:1007C000B9BBBDBFC1C3C5C8CACCCED0D3D5D7DA9B
:1007D000DCDEE1E3E6E8EAEDEFF2F4F7F9FCFF0A2C
:1007E000002530325820006B6579626F6172645F5A
:1007F0007265706F72743A20000A0025303258001A
:100800006B6579626F6172645F7365745F6C656458
:100810003A20006261636B6C696768742073746569
:10082000703A2025750A006261636B6C69676874B1
:100830002064697361626C650A006261636B6C6954
:1008400067687420656E61626C650A006261636B43
:100850006C6967687420746F67676C653A202575EA
:100860000A006261636B6C69676874206465637217
:10087000656173653A2025750A006261636B6C6976
:1008800067687420696E6372656173653A202575C7
:100890000A005B735D004B6579626F61726420735F
:1008A000746172742E0A005B575D005B535D005BE0
:1008B000525D005B445D005B435D0004033000005B
:1008C0000012034E004900550020004D0069006EE3
:1008D000006900000010034B004200440046006124
:1008E000006E00730000000403090409025B0003AA
:1008F0000100A0FA0904000001030101000921110F
:100900000100012240000705810308000A090401D3
:100910000001030000000921110100012236000737
:1009200005820320000A09040200020300000009F6
:100930002111010001222200070583032000010785
:100940000503032000011201100100000008EDFE64
:1009500060600100010203010631FF0974A1010971
:1009600075150026FF00952075088102097615008F
:1009700026FF00952075089102C005010980A1019C
:1009800085031601002603001A81002A83007510D2
:1009900095018100C0050C0901A101850416010023
:1009A000269C021A01002A9C02751095018100C044
:1009B00005010906A101050719E029E71500250130
:1009C00095087501810295017508810105081901D5
:1009D000290595057501910295017503910105079A
:1009E000190029FF150026FF00950675088100C033
:1009F00011241FBECFEFDAE0DEBFCDBF04B603FE89
:100A000027C08091570290915802A0915902B0914D
:100A10005A028730904BA740B04BD1F41092570246
:100A2000109258021092590210925A0214BE84B7C2
:100A3000877F84BF0FB6F894A89580916000886185
:100A400080936000109260000FBEE0E0F8E309952B
:100A500011E0A0E0B1E0EAE8FAE502C005900D92ED
:100A6000A236B107D9F722E0A2E6B1E001C01D929B
:100A7000A735B207E1F70E94F6260C94432D0C949B
:100A80000000FF93EF93E0916201F09163013097D2
:100A900009F00995EF91FF910895FC01859180304F
:100AA00011F0EFDFFBCF0895FF27E0E230E247FFD0
:100AB0000CC0419597FF09C0EDE260957095809557
:100AC0009095611D711D811D911D27FF02C021950B
:100AD00030E350E2AA27660F771F881F991FAA1FCD
:100AE000A41710F0A41B63955A95A9F7AA3008F033
:100AF000A95FA05DAF93F39561157105810591051F
:100B000041F7ED3211F4EF93F395F21718F43F9398
:100B1000F395FBCF8F91B5DFFA95E1F70895E99151
:100B2000F9918591803021F0853219F0AADFF9CF53
:100B3000089520E0E89455915532C1F3503311F4F3
:100B4000689455915A3348F4505390F3220F022E73
:100B5000220F220F200D250FF4CF0EF4219589913D
:100B60009991533619F3533729F1533559F1BC0193
:100B700088279927E8945C3621F4899199916894A3
:100B80005591543639F446EF7EF077FF0DC08FEF64
:100B90009FEF0AC055374AE039F0583540E121F05F
:100BA000523642E009F00895FF93EF937DDFEF9115
:100BB000FF91B7CFFF93EF93FC0181918030B9F3A0
:100BC00060DFFBCFFF93EF9368DFF1CFDF93CF932D
:100BD000CDB7DEB72596A3DFCF91DF9108956E9A4A
:100BE000769A0C947A0B81E0089581E008950C9434
:100BF000F5051F93CF93DF9300D000D01F92CDB7A0
:100C0000DEB749835A832091980189819A81211105
:100C100012C0662349F00E941920182F682F89817D
:100C20009A810E94BE1F03C00E94ED1F182F698188
:100C30007A81812F04C00E94192069817A810F90E6
:100C40000F900F900F900F90DF91CF911F910C9408
:100C5000CF08FC01408151816281738184810C94B1
:100C6000F9050C947C0BE82FE295EF70F0E032A1CF
:100C7000282F2F7081E090E001C0880F2A95EAF7B5
:100C80008095832382A30895CF92DF92EF92FF9203
:100C9000853030F4811105C0909180009F7D04C0A3
:100CA00084E090918000906290938000282F30E043
:100CB000AFEFBFEF0E94D42CDC01CB0142E0B69530
:100CC000A795979587954A95D1F78C3724E1920798
:100CD000A105B10528F469E070E00E94842C27C0CA
:100CE0008A50974DAF4FBF4F6627782F892F9A2F85
:100CF00025EF38E241E050E00E94AC2C69017A0116
:100D0000CA01B9010E94682C9B01AC01C701B60160
:100D10000E94682CBB27A92F982F872F009721E0CE
:100D2000A207B10511F0BC0102C06FEF7FEF709315
:100D30008B0060938A00FF90EF90DF90CF90089532
:100D4000269A86E30E94330682E28093800089E13E
:100D5000809381008FEF9FEF9093870080938600B0
:100D60000C9471230E947E21811102C00E940D22E9
:100D70000E94A0060C94EF0508950C94BC060C94F8
:100D8000BD0608950E94E41A0E94C1062FEF84E375
:100D90009CE0215080409040E1F700C000000C949E
:100DA00034230F931F93CF93DF93EC010E94290606
:100DB0008C01BE010E94F705882329F1BE01C801FC
:100DC0000E94CA148823F9F00A3C8CE51807E9F060
:100DD00008F019C1033C8CE51807F1F040F5053126
:100DE0008CE5180708F0AEC002308CE51807B0F5A6
:100DF00001158CE5180709F082C0CA81CC2309F4DB
:100E0000C4C10E94C206C0E0C0C1CA81CC2309F49B
:100E1000BCC10E947F10F7CFCA81CC2309F4B5C1B1
:100E20000E9499208272B9F00E94BA12ECCF063C5F
:100E30008CE5180709F4BBC008F0CBC0043C8CE576
:100E4000180709F0BBC0CA81CC2309F49EC10E94D7
:100E50009920827249F30E94AD12D5CF8A818823EE
:100E600009F450C00E947E21811102C00E940D220F
:100E70000E94912190E09093480280934702F801EC
:100E8000E350FC45E231F10530F4EA5AFF4F80911E
:100E900047020C94CE2C80914702816027C082606B
:100EA00025C0846023C0806121C080621FC080642F
:100EB0001DC080681BC08460886018C08E7F16C00B
:100EC0008D7F14C08B7F12C08F7E10C08F7D0EC0AF
:100ED0008F7B0CC08F770AC08B7F877F07C087FB13
:100EE000222720F991E0922790FB87F9809347020F
:100EF000809147020E9495210E94E41A84CF01301C
:100F00001C4539F0CE01DF91CF911F910F910C94C8
:100F1000F305CA81CC2309F438C180910402C82F9B
:100F2000C095C170C0FB80F980930402CC2329F0E6
:100F300082EB92E00E944D0566CF80EA92E00E942B
:100F40004D0523C106318CE5180731F50E94992023
:100F5000282F8A814091100150911101882379F046
:100F60002A7A91E009F490E090936401911102C013
:100F700069E201C065E3CA010E9441220AC0809172
:100F80006401811102C069E201C065E3CA010E94E7
:100F900043220E94E52037CF023C1C4509F0B2CF26
:100FA000CA81CC2309F4F1C00E9473132CCFCA81EB
:100FB000CC2309F4EAC00E94431025CF053C1C4510
:100FC00009F0A0CFCA81CC2309F4DFC00E943610FB
:100FD0001ACFCA81083C8CE5180731F4CC2309F4F8
:100FE000D4C00E9461100FCF093C1C4530F4CC23C3
:100FF00009F4CBC00E94521006CFCC2309F4C5C01F
:101000000E94701000CF013D8CE5180779F4CA8169
:10101000CC2309F4BAC00E94640E8F3028F00E94DD
:10102000640E843108F417CF8FE00EC0023D8CE5CA
:10103000180708F058C00D3C8CE5180741F4CA8128
:10104000CC2309F4A2C081E00E94BD12DCCE0E3C8C
:101050008CE51807B0F40B3C8CE5180739F4CA810D
:10106000CC2309F492C00E946C0ECDCE0C3C1C45E2
:1010700009F048CFCA81CC2309F487C00E947D0EB5
:10108000C2CECA810F3C8CE5180771F4CC2309F459
:101090007CC00E94640E863028F00E94640E883066
:1010A00008F4D9CE86E0D0CF003D1C4570F4CC23A7
:1010B00009F46BC00E94640E823028F00E94640E16
:1010C000853008F4C8CE82E0BFCFCC2309F45DC0E0
:1010D0000E94640E893028F00E94640E8E3008F45D
:1010E000BACE89E0B1CF053D8CE5180731F4CA814D
:1010F000CC2309F44AC083E2A7CF063D8CE518074C
:1011000030F5CA81033D8CE5180721F4CC23E9F1C1
:1011100088E19ACF043D1C4568F4CC23B1F10E94CC
:10112000640E853128F00E94640E873108F493CE56
:1011300085E18ACFCC2349F10E94640E893128F0E1
:101140000E94640E823208F486CE89E17DCF0D3D87
:101150008CE5180739F4CA81CC23B9F082E00E94EB
:10116000A02751CE0E3D8CE5180731F4CA81CC235F
:1011700061F00E940D2247CE0C3D1C4509F0C2CE05
:10118000CA81CC2311F080E0EACF8C2FDF91CF9180
:101190001F910F91089580E090E0089508959CE0DC
:1011A000799FF001112490E3899FE00DF11D112436
:1011B000E60FF11DEE0FFF1FE05EFE4F859194914B
:1011C0000895880F991FFC01ED53FD4F859194916F
:1011D0000895CF93DF930E94CF080E94DA0AEC01B2
:1011E000811521E5920708F042C0811560E5960758
:1011F00008F02FC1883E910500F5803E910508F06A
:10120000D5C1883A910570F4853A910508F0A4C0DB
:101210008130910509F4CAC108F47BC1049708F034
:10122000C5C177C18F3B910508F4A1C0803C9105F1
:1012300008F46FC1805C9109FBC0C11580E3D80739
:1012400080F4C11590E2D90708F0F0C0C03FD10585
:1012500008F45FC1CF3FD10511F008F0A7C1D065F8
:10126000A5C1C11520E4D20708F0F0C0E5C0811582
:1012700069E5960760F5C11588E5D80708F035C11E
:10128000C11594E5D90778F4C11523E5D20708F014
:1012900011C1C11562E5D60708F0F6C0DC2FCC27D6
:1012A000C16FD06A83C1C11585E5D80708F418C19C
:1012B000C11596E5D90708F02CC18C2F0E94570B59
:1012C0008F71C82FD0E0DC2FCC27D0626FC18D3B4F
:1012D0002CE5920709F414C1E0F4CB3B8CE5D80768
:1012E00009F408C108F009C1C1152AE5D20708F0C0
:1012F00010C18C2F8F700E94570B94E0D695C79524
:101300009A95E1F7CF70D0E0DC2FCC27D069C82BBD
:101310004DC1803C9C4509F4F9C0C13C8CE5D8071F
:1013200060F4CE3B9CE5D90709F4EDC0CF3BDC452A
:1013300009F0EFC0C0E0D2ED39C1CE019056811561
:10134000904208F0E6C08D2F8F710E94570BDD2769
:10135000D0628F71D82B2AC1853A910509F4DCC07F
:10136000863A910509F0DBC0C2E8D0E41FC1883A93
:10137000910509F4D7C0893A910509F4D6C08A3A93
:10138000910509F4D5C08B3A910509F4D4C08C3A83
:10139000910509F4D3C08B3B910509F4D2C08C3B75
:1013A000910509F4D1C08D3A910509F4D0C0803B74
:1013B000910509F4CFC08E3A910509F4CEC08F3A59
:1013C000910509F4CDC0813B910509F4CCC0823B65
:1013D000910509F4CBC0833B910509F4CAC0843B55
:1013E000910509F4C9C0853B910509F4C8C0863B45
:1013F000910509F4C7C0873B910509F4C6C0883B35
:10140000910509F4C5C0893B910509F4C4C08D3B21
:10141000910509F4C3C08E3B910509F4C2C08A3B13
:10142000910509F4C1C0C0E0D4E4C0C0CE019F70F2
:101430000E94E108EC01BAC0CE019927D3FF03C096
:10144000EC01D86CB3C0EC01D06CB0C0DF70D06AD6
:10145000ADC0837021E030E002C0220F331F8A95B7
:10146000E2F73C68CE0174E0969587957A95E1F7AE
:101470008370382BCF70C695C69580E2C89FE00177
:101480001124C22BD32B92C04C2F4695469590E247
:10149000499FA0011124C370DD2721E030E0C9017C
:1014A00002C0880F991FCA95E2F7EC01C42BD52B17
:1014B000DC687CC04C2F4695469580E2489FA00191
:1014C0001124C370DD2721E030E0C90102C0880F7C
:1014D000991FCA95E2F7EC01C42BD52BDA6866C0D8
:1014E000DC2FCC27C46FD06A61C0DC2FCC27C06F43
:1014F000D06A5CC0C0E0D4ED59C0C0E0D5ED56C0A4
:10150000C0E0D1ED53C0C0E0D0ED50C0C0E0D3ED9D
:101510004DC0C0E0D0E04AC0C1E8D0E447C0C3E855
:10152000D0E444C0C2EED4E441C0C9EED4E43EC02D
:10153000CAEED4E43BC0C5EBD4E438C0C6EBD4E477
:1015400035C0C3EBD4E432C0C4EBD4E42FC0C7EB46
:10155000D4E42CC0CCECD4E429C0CDECD4E426C037
:10156000C3E8D5E423C0CAE8D5E420C0C2E9D5E485
:101570001DC0C4E9D5E41AC0C1E2D6E417C0C3E275
:10158000D6E414C0C4E2D6E411C0C5E2D6E40EC06D
:10159000C6E2D6E40BC0C7E2D6E408C0CFE6D4E486
:1015A00005C0C0E7D4E402C0CAE2D6E4CE01DF91B0
:1015B000CF9108958238910549F1B0F481339105B6
:1015C00009F458C048F48932910509F44EC08A32B2
:1015D000910509F454C008958533910509F440C07C
:1015E0008933910599F00895833E910529F138F4E6
:1015F000803E910591F0823E9105A1F00895863ECE
:101600009105F9F0873E910531F108952091470247
:1016100020FD3AC021FD38C008958091470280FD29
:1016200035C032C08091470282FF32C080914702AC
:1016300084FD30C083EE39C08091470282FD28C00E
:10164000F5CF8091470283FF27C08091470284FD38
:1016500021C087EE2AC08091470283FD1DC0F5CFCF
:101660008091470285FD1AC01BC08091470285FD0D
:1016700017C014C08091470286FD14C015C0809128
:10168000470286FD11C00EC080EE0FC089E30DC079
:1016900082EE0BC080E009C086EE07C089E205C07B
:1016A00085E303C08AE201C081E390E00895909150
:1016B000470292FF0DC0282F2871283019F4877F28
:1016C000846006C0282F2471243011F48B7F886039
:1016D00093FF0DC0282F2871283119F4877E84616B
:1016E00006C0282F2471243111F48B7E886194FD6B
:1016F000877E0895089508950C947B0BE82FF0E001
:10170000EE0FFF1FEB59FE4F808191810895CF921C
:10171000DF92EF92FF920F931F93CF93DF9383EDAE
:1017200092E00E944D0585E6E82E81E0F82EC0E0AB
:10173000D0E09EECC92E92E0D92E05EC12E0DF93AA
:10174000CF93DF92CF920E94E6058BEC92E00E944D
:101750004D05F701819191917F010E9464219F9332
:101760008F931F930F930E94E60583EC92E00E94F3
:101770004D0521968DB79EB708960FB6F8949EBF7B
:101780000FBE8DBFC430D105D1F6DF91CF911F912F
:101790000F91FF90EF90DF90CF900895A9E2B1E014
:1017A00041E050E024E02A0F8D91E82FE295EF70A0
:1017B000F0E031A18F70BA0102C0660F771F8A95E1
:1017C000E2F7CB01962F9095932391A392A1892BB9
:1017D00082A32A13E9CFADE1B1E041E050E02CE073
:1017E0002A0F8D91E82FE295EF70F0E031A18F7014
:1017F000BA0102C0660F771F8A95E2F7CB01962FD8
:101800009095932391A392A1892B82A32A13E9CFC8
:1018100010926E0110926D01109266011092650196
:101820001092700110926F0110926801109267017E
:10183000109272011092710110926A011092690166
:10184000109274011092730110926C0110926B014E
:1018500084E00E94C40C0C94B2065F926F927F9257
:101860008F929F92AF92BF92CF92DF92EF92FF92B0
:101870000F931F93CF93DF9309E211E0ADE6B1E040
:10188000612CEE24E394F12C5D018D909C901197D6
:1018900011961C921E92E80189918E01E82FE29523
:1018A000EF70F0E091A18F70A70101C0440F8A95FD
:1018B000EAF7892F842B81A382A1542E509485218D
:1018C00082A3D0EADA95F1F78DE1C82E81E0D82E17
:1018D00080E090E0E60179906E01272D22952F702F
:1018E00030E0E90168A12D913C91119770E0D72D6E
:1018F000DF7002C075956795DA95E2F760FD08C064
:10190000B701082E02C0660F771F0A94E2F702C0E3
:1019100060E070E0262B372B11963C932E930196B6
:101920008C309105B9F681A1D52DD823D1A382A100
:10193000482B42A3129681E0F50120813181821665
:10194000930609F480E0682AF1E0A537BF0709F0A3
:101950009BCF262D44E065E671E08DE691E00E9484
:10196000C50C0E943106862DDF91CF911F910F91FA
:10197000FF90EF90DF90CF90BF90AF909F908F90AF
:101980007F906F905F9008950895FF920F931F933B
:10199000CF93DF93F82E092F162FD72FC42F222392
:1019A00049F081E0809377010E94D82290937601DC
:1019B00080937501809177018823D9F0809175011A
:1019C000909176010E94E422069798F0EF2DF02F77
:1019D000A12FBD2F80E090E04C2F50E08417950799
:1019E00034F4219131912D933D930196F7CF1092CC
:1019F0007701DF91CF911F910F91FF900895CF92C2
:101A0000DF92EF92FF920F931F93CF93DF937B01AF
:101A1000282F382FE82FF0E0F11006C0E152F94FDF
:101A20006491762F862F7BC00F2D10E046E0649FD7
:101A3000C0011124CFEFD0E0BE010E94842CAB0185
:101A40006BEA6403C001659F900D11248E0D911DFA
:101A50008E0D911D982F990F890FBE01601B710B80
:101A60006E9FD0016F9FB00D7E9FB00D11249B2FF4
:101A70008F9DB0011124672F77277E01E61AF70AA0
:101A8000EE9EB001EF9E700DFE9E700D11246E0152
:101A9000C81AD108C09E7001C19EF00CD09EF00CF7
:101AA00011240F2D1127C01BD10BCE9F8001CF9F7A
:101AB000100DDE9F100D1124812F4230510591F041
:101AC0004CF441155105E1F041305105B9F4822F34
:101AD000272F16C04430510569F044F046305105B7
:101AE00079F00CC0822F2B2F912F0AC02B2F932F10
:101AF000872F06C08B2F922F212F02C08B2F972F5D
:101B0000E22FF0E0E152F94F7491E82FF0E0E1525A
:101B1000F94F6491E92FF0E0E152F94F8491DF91A0
:101B2000CF911F910F91FF90EF90DF90CF9008958C
:101B30000895CF93DF93762FE901682F842F0E94B9
:101B4000FF0C798368838A83DF91CF910895809118
:101B50001402282F269530E02115310519F48170E3
:101B6000826005C02532310524F08170886480933D
:101B70001402089588E090E00C94032DCF93DF9336
:101B800000D000D0CDB7DEB7AB01BC0149835A838A
:101B90006B837C830E94A70D49815A816B817C8174
:101BA00088E090E00F900F900F900F90DF91CF9111
:101BB0000C94212DE4E1F2E083E0808311828FEF29
:101BC00082838383148260817181828193810C94EA
:101BD000BE0D8091040280FF08C08FEA95E09F93BC
:101BE0008F930E94E6050F900F908091040280FF72
:101BF0000FC08091140281701F928F9382E995E04B
:101C00009F938F930E94E6050F900F900F900F9077
:101C10008091040280FF0FC08091140286951F926C
:101C20008F9387E795E09F938F930E94E6050F902F
:101C30000F900F900F908091040280FF0EC0809152
:101C400015021F928F938DE595E09F938F930E94CD
:101C5000E6050F900F900F900F908091040280FF87
:101C60000EC0809116021F928F9383E495E09F939C
:101C70008F930E94E6050F900F900F900F90809128
:101C8000040280FF0EC0809117021F928F9389E299
:101C900095E09F938F930E94E6050F900F900F9011
:101CA0000F908091040280FF0EC0809118021F9255
:101CB0008F938DE095E09F938F930E94E6050F90A0
:101CC0000F900F900F9008958091140280FF02C032
:101CD0008695089580E0089580911802833018F465
:101CE0008F5F8093180260911402709115028091A9
:101CF0001602909117020C94BE0D80911802882351
:101D000019F08150809318026091140270911502AD
:101D100080911602909117020C94BE0D60910401FF
:101D200070E08091140280FF0AC080917C0123E062
:101D3000829FC0011124875E9D4F0C945A1480919C
:101D40007B0190910301891780F7E82FF0E09F0154
:101D5000220F331FE20FF31FE75EFD4F1182108247
:101D600012828F5FF0CF9091140290FF16C0909175
:101D70007B0120910301921770F4E92FF0E0DF015D
:101D8000AA0FBB1FEA0FFB1FE75EFD4F8183608335
:101D900042839F5FF0CF0C948E0E0895CF93DF9314
:101DA00000D01F92CDB7DEB79091140290FF0AC009
:101DB0009E012F5F3F4F0E94990D4B8169818A815F
:101DC0000E94B30E0F900F900F90DF91CF91089566
:101DD000CF93DF93EC01EC81F0E0E652FA4F4491AF
:101DE000E4E1F2E0628181810E94CE0E8C818F5FFE
:101DF0008C83DF91CF910895CF93DF93EC01E4E1E1
:101E0000F2E0438162818C810E94CE0E8C818F5FD3
:101E10008C83DF91CF9108950F931F93CF93DF931E
:101E200000D01F92CDB7DEB78C018091780181116F
:101E30000AC09E012F5F3F4F4FEF6FEF0E94990D39
:101E40008A8180937801F8018481813051F028F0F3
:101E5000823061F4409178010AC08091780140E0BD
:101E600007C06091780140E080E003C040E080E07E
:101E700060E00E94B30EF801248130E0C9010196B0
:101E800063E070E00E94982C84830F900F900F9075
:101E9000DF91CF911F910F9108956F927F928F9252
:101EA0009F92AF92BF92CF92DF92EF92FF920F93E9
:101EB0001F93CF93DF9300D000D0CDB7DEB7182F9C
:101EC000D62E042FB22E9091140290FFB2C0E92FAB
:101ED000E695AE2FB0E0A35DBE4F8C918093840158
:101EE0009E7F923061F49E012F5F3F4F812F0E94B1
:101EF000990D4B8169818A810E94B30E60C0823046
:101F000019F4009117025BC0863019F41091150284
:101F100056C08930D9F3893109F051C0E9518E2F6B
:101F200080958170C82EE695F0E0E652F94FE59075
:101F3000F490A12CFF2428E6822E23E0922E6091BB
:101F40000201A616D0F56A2C712C6E9CC0016F9C04
:101F5000900D7E9C900D112470E00E94842C812FA6
:101F6000CC2011F0860F01C0861B9091040290FFD7
:101F700013C0FF92EF921F92CF921F928F931F92E6
:101F8000AF929F928F928C830E94E6050FB6F894D1
:101F9000DEBF0FBECDBF8C8190917B01690E711C9D
:101FA0009301220F331F260D371D275E3D4F402F13
:101FB0006D2D0E94990DA394C2CF0E948E0E109396
:101FC0001502D092160200931702BB20E9F060912F
:101FD00014027091150280911602909117020E94CE
:101FE000BE0D8091040280FF24C0809117021F92D1
:101FF0008F93809116021F928F93809115021F92EA
:102000008F9383E493E00CC08091040280FF11C0A1
:102010001F920F931F92DF921F921F938CE193E008
:102020009F938F930E94E6050FB6F894DEBF0FBE14
:10203000CDBF0F900F900F900F90DF91CF911F9118
:102040000F91FF90EF90DF90CF90BF90AF909F9057
:102050008F907F906F900895E4E1F2E09181282FB6
:102060004381628188E0890F0C944D0F81E00C94CC
:102070002C10E4E1F2E09181282F4381628188EF06
:10208000890F0C944D0F81E00C943910E4E1F2E0DB
:10209000628128E0620F08F46FEF282F438181816D
:1020A0000C944D0F81E00C944610E4E1F2E0628163
:1020B00028E0621B08F460E0282F438181810C94A2
:1020C0004D0F81E00C945510E4E1F2E0438128E0EB
:1020D000420F08F44FEF282F628181810C944D0F3D
:1020E00081E00C946410E4E1F2E0438128E0421BBB
:1020F00008F440E0282F628181810C944D0F81E02B
:102100000C94731020E00C944D0FFF920F931F93CB
:10211000CF93DF93EC01F12C0FEF10E060910201FF
:10212000F616E8F420917B0130E02F0D311DC90136
:10213000880F991F280F391F275E3D4F70E0C80197
:102140000E94982C962F8C81409117026091160264
:10215000F99E800D11240E94990DF394DFCF0E9407
:102160008E0E9A818C8190FF02C08F5F01C08150DA
:102170008C83DF91CF911F910F91FF900895BF92B3
:10218000CF92DF92EF92FF920F931F93CF93DF9343
:10219000FC01828180FF02C00FEF01C001E010E06E
:1021A000809102011817E0F5C12ED12C80917B019E
:1021B000E601C80FD11DCE01880F991FC80FD91F86
:1021C000C75EDD4F198218821A8234E0E32EF12CAB
:1021D000B12C80917A018B0D87FF03C09091020191
:1021E000890F082E000C990BC816D90691F480911E
:1021F00017028E9DA0018F9D500D11245595479576
:10220000559547959E0160911602809115020E9496
:10221000990DB00EF1E0EF1AF108D9F61F5FC0CFAB
:102220000E948E0E80917A01013031F4811102C03A
:1022300080910201815007C090E0019660910201F7
:1022400070E00E94982C80937A01DF91CF911F91CA
:102250000F91FF90EF90DF90CF90BF900895CF93B4
:1022600080917B0190910301891770F4E82FF0E0D1
:102270009F01220F331FE20FF31FE75EFD4F118214
:10228000108212828F5FF0CFC0E060910201C6170A
:10229000B8F5EC2FF0E070E0CF010E94982C40914F
:1022A0007B01480F80917901082E000C990B50E0BA
:1022B000E817F907C4F020910101022E000C330B3E
:1022C0002E173F0784F09A01220F331F240F351F6A
:1022D000275E3D4F409117026091160280911502D2
:1022E0000E94990D0BC0FA01EE0FFF1F4E0F5F1FEA
:1022F000FA01E75EFD4F118210821282CF5FC5CFD7
:102300000E948E0E2091000180917901820F8093AE
:10231000790190910101920F9093010119165CF4DB
:10232000082E000C990B4091020150E041505109D8
:10233000841795071CF0219520930001CF910895F3
:102340000F931F93CF93DF938C01FC0184819581C0
:1023500001968170992795838483C0E0D5E58091AB
:102360000201C817F8F420917B0130E02C0F311DD9
:10237000C901880F991F280F391F275E3D4F4C2F29
:102380004695F80184819581840F911D817040915B
:102390001702609116028D9F802D11240E94990DC5
:1023A000CF5FDDCFDF91CF911F910F910C948E0EF7
:1023B0000F931F93CF93DF93EC0100E010E0809127
:1023C0000201282F30E00217130724F590917B01BA
:1023D0009801290F311DA901440F551F240F351FE6
:1023E000275E3D4F869590E04C81081719071CF435
:1023F000442331F002C0411103C04091170201C0D3
:1024000040E060911602809115020E94990D0F5FC5
:102410001F4FD5CF0E948E0E2C8130E02F5F3F4F93
:10242000217033272C83DF91CF911F910F91089555
:1024300060911402669570E04BE050E085E091E019
:102440000E94EE2C892B19F481E0809385010E9473
:10245000D82290937E0180937D018091040280FFB9
:1024600008C083E093E09F938F930E94E6050F904E
:102470000F900895109285018091040280FF08C09A
:102480008AEE92E09F938F930E94E6050F900F9043
:1024900008959091140290FF54C09170811102C070
:1024A000926006C0853210F0986402C0880F982BA5
:1024B000909314026623B1F060911402709115029A
:1024C00080911602909117020E94BE0D8091040225
:1024D00080FF1BC08091140286951F928F9383E525
:1024E00094E00BC08091040280FF0FC08091140221
:1024F00086951F928F9385E394E09F938F930E941C
:10250000E6050F900F900F900F9060911402669562
:1025100070E04BE050E085E091E00E94EE2C892BCA
:1025200019F00E943A1202C00E94181281E08093B2
:1025300080014091170260911602809115020C945F
:1025400082100895682F90911402969581E0890F6A
:10255000853208F081E00C94491281E00C94A212BB
:10256000682F9091140296958FEF890F09F484E2F9
:102570000C94491281E00C94B01261E00C94491261
:10258000809114028160809314028091040280FF84
:102590000DC01F9281E08F9387EC93E09F938F9300
:1025A0000E94E6050F900F900F900F9080911402FB
:1025B00086950C94BD1260E00C94491280918301C1
:1025C000811161C08091040281608093040286EFD2
:1025D00094E09F938F930E94E605809104020F90F0
:1025E0000F9080FF08C080EE94E09F938F930E942D
:1025F000E6050F900F900E947E21811110C08091FE
:10260000040280FF08C088EB94E09F938F930E94A0
:10261000E6050F900F900E940D220E94DA0D0E9495
:10262000BA0D609314027093150280931602909372
:1026300017026E7FC1F48091040280FF08C08FE60C
:1026400094E09F938F930E94E6050F900F900E9455
:10265000DA0D0E94BA0D60931402709315028093F4
:102660001602909317020E94A70D0E94E90D109286
:1026700085018091140280FF03C086950E94DB12C1
:1026800081E0809383010895809114028E7F80936E
:1026900014026091140270911502809116029091BB
:1026A00017020E94BE0D8091040280FF0FC080912E
:1026B000140281701F928F938FE893E09F938F9302
:1026C0000E94E6050F900F900F900F900E943A1213
:1026D0002FEF80E792E0215080409040E1F700C06A
:1026E00000000C948E0E8091040280FF10C0809137
:1026F0001402809581701F928F938EEF93E09F93C9
:102700008F930E94E6050F900F900F900F9080918D
:10271000140280FD0C9444130C94C0120F931F9369
:10272000CF93DF9380918501882309F48CC0809139
:102730008401E0911402E695E81BE0937F0182306A
:1027400049F4F0E0EA52FA4FE491CE2FD0E008EEDF
:102750001EE049C0863049F4F0E0ED52FA4FE491B2
:10276000CE2FD0E00CEF1EE03EC0893051F4E6954C
:10277000F0E0E053FA4FE491CE2FD0E005E810E10D
:1027800032C08F3051F4E695F0E0E353FA4FE49114
:10279000CE2FD0E00FEB10E126C0853149F4F0E0F8
:1027A000E653FA4FE491CE2FD0E00FE211E11BC0C7
:1027B000883181F0833239F4E8ECF5E0C591D491A9
:1027C0000CE01FE010C0843251F4C4EFD1E008EDFA
:1027D00011E109C0C8EED3E000EA11E104C0C0ED88
:1027E000D7E008E91DE080918001882389F01092EC
:1027F00080010E94D8229E0120953095820F931F60
:1028000090937E0180937D0110928201109281014C
:1028100080917D0190917E010E94E4228C179D079A
:1028200090F0E0917D01F0917E01CE0FDF1FD093FB
:102830007E01C0937D018DE791E0F801DF91CF919A
:102840001F910F910994DF91CF911F910F910895DE
:102850002EB1342F309523233EB1432B3FB7F8944C
:10286000FC01680F791FE617F70789F0819198E05E
:102870004EB9000000C087FF2EB9880F000000C0CD
:1028800000C000C02EB900C09A9591F7ECCF3FBFB1
:1028900008952DB1242B2DB99B01220F331F620FF8
:1028A000731F0E94281487EC90E00197F1F700C095
:1028B0000000089544E00C9449140F931F93CF93A4
:1028C000DF93C62FD42F022FFC0182818823C9F009
:1028D000609388010E94D82290938701809386019B
:1028E00080E28C0F883008F050C0C77081E001C0D2
:1028F000880FCA95EAF7DF91CF911F910F910C9441
:10290000541810918801161330C08091860190915F
:1029100087010E94E422883C910538F5C0E2CD0F82
:102920001D17B9F080E2810F883040F4177081E004
:1029300001C0880F1A95EAF70E945B18C83048F466
:1029400081E09D2F977001C0880F9A95EAF70E9449
:102950005418802F0E944118C830B8F4D77081E015
:1029600001C0880FDA95EAF70AC080E28C0F883040
:1029700060F4C77081E001C0880FCA95EAF7DF9163
:10298000CF911F910F910C945B18DF91CF911F9104
:102990000F9108959C01CB01203F4CE53407F9F0DD
:1029A00078F4283DFCE53F07B9F0293D4CE53407B4
:1029B00011F1273D3C4531F526E241EE61EE1EC0A6
:1029C000223FFCE53F0799F070F0233F3C45D1F4EE
:1029D00027E245EE66EE12C027E245EE0EC026E283
:1029E00041EE60EE0BC027E245EE64EE07C026E242
:1029F00041EE62EE03C028E241E065EE0E945D1404
:102A000080E00895FC018281882319F010928801EA
:102A1000089581E0089590938E0180938D0108952B
:102A2000E0918D01F0918E01309721F00190F081BD
:102A3000E02D099480E00895EF92FF920F931F9389
:102A4000CF93DF93E0918D01F0918E013097B1F13A
:102A50008C010280F381E02D09958091040282FFB0
:102A60002DC080FF04C087EE97E00E944D05E8016D
:102A700018E081EEE82E87E0F82E8091040280FFB6
:102A80000BC088811F928F93FF92EF920E94E60500
:102A90000F900F900F900F90115021961111EDCFC4
:102AA0008091040280FF0AC08FED97E0DF91CF9103
:102AB0001F910F91FF90EF900C944D05DF91CF91F6
:102AC0001F910F91FF90EF90089520918B0130910D
:102AD0008C018217930771F090938C0180938B0186
:102AE000E0918D01F0918E01309721F00680F78101
:102AF000E02D099408952091890130918A0182176F
:102B0000930771F090938A0180938901E0918D0180
:102B1000F0918E01309721F00084F185E02D099429
:102B2000089585B7806885BF85B7806885BF08959B
:102B3000089508950C94991508950C949C150E947D
:102B400091150E9498150C949A1581E008950E94A1
:102B5000CF220E94CE0B0E9458230E9471230E9414
:102B6000DE120C949D15CF93C82F8091040282FF32
:102B70001EC080FF04C080E098E00E944D05809157
:102B8000040280FF0CC01F92CF938BEF97E09F93BE
:102B90008F930E94E6050F900F900F900F908091F9
:102BA000040280FF04C089EF97E00E944D058C2F3E
:102BB000CF910C94BF064F925F927F928F929F921B
:102BC000AF92BF92CF92DF92EF92FF920F931F933B
:102BD000CF93DF93CDB7DEB72A970FB6F894DEBF59
:102BE0000FBECDBF0E942D0C0E94A515811111C0F2
:102BF0008FEF89838A831B820E94D8228160782F7D
:102C00009D838C8349815A816B818D810E949716A7
:102C100057C090E9C92E91E0D92E00E010E0AA2417
:102C2000A394B12C702E802F0E947E0B4C01F601D4
:102C3000419051906F01482659264114510431F4B6
:102C40000F5F1F4F0430110569F7D2CF8091040246
:102C500081FD0E94870B20E030E07501022E02C04A
:102C6000EE0CFF1C0A94E2F7C70184219521892B01
:102C700009F12E837F828E209F2091E0892809F41C
:102C800090E098870E94D8228160782F9A87898760
:102C90004E815F8168858A850E949716000F111FFB
:102CA000F801E057FE4F80819181E826F926F182F4
:102CB000E08206C02F5F3F4F2C30310571F6C0CF48
:102CC00010918F010E9410151817D9F00E9410154D
:102CD00080938F012A960FB6F894DEBF0FBECDBF4A
:102CE000DF91CF911F910F91FF90EF90DF90CF90E8
:102CF000BF90AF909F908F907F905F904F900C947B
:102D0000B3152A960FB6F894DEBF0FBECDBFDF9184
:102D1000CF911F910F91FF90EF90DF90CF90BF90D8
:102D2000AF909F908F907F905F904F900895CF933A
:102D3000DF93CDB7DEB72B970FB6F894DEBF0FBE8B
:102D4000CDBF4F83588769877A878B87DE011196BD
:102D500086E0FD0111928A95E9F785E0FE0137963C
:102D600001900D928A95E1F749815A816B817C81AE
:102D70008D819E810E948E1D2B960FB6F894DEBF2A
:102D80000FBECDBFDF91CF910895FC01808191816D
:102D90000E945A200895882309F413C1682F8238AD
:102DA000C1F40E94101581FD0CC169E380911001EE
:102DB000909111010E9441220E94E5202FEF81EEA7
:102DC00094E0215080409040E1F700C0000069E3AA
:102DD00019C08338F9F40E94101580FDF2C063E534
:102DE00080911001909111010E9441220E94E520E2
:102DF0002FEF81EE94E0215080409040E1F700C039
:102E0000000063E580911001909111010E9443221E
:102E10000C94E5208438C1F40E94101582FDD1C0C5
:102E200067E480911001909111010E9441220E945B
:102E3000E5202FEF81EE94E0215080409040E1F7B3
:102E400000C0000067E4DECF8CEF860F813A38F4D3
:102E500080911001909111010E944122D9CF80E20E
:102E6000860F883048F4677081E001C0880F6A954A
:102E7000EAF70E949C20CCCF8BE5860F833070F45C
:102E8000653A29F0663A31F083E890E005C081E8C0
:102E900090E002C082E890E00C94651588E5860F0A
:102EA000873108F08EC0683A09F445C0693A09F4E0
:102EB00045C06A3A09F445C06B3A09F445C06C3A1A
:102EC00009F445C06B3B09F445C06C3B09F445C0AF
:102ED0006D3A09F445C0603B09F445C06E3A09F407
:102EE00045C06F3A09F445C0613B09F445C0623BF7
:102EF00009F445C0633B09F445C0643B09F445C08F
:102F0000653B09F445C0663B09F445C0673B09F4DD
:102F100045C0683B09F445C0693B09F445C06D3BB9
:102F200009F445C06E3B09F445C06A3B09F445C04D
:102F300080E090E044C082EE90E041C089EE90E0F5
:102F40003EC08AEE90E03BC085EB90E038C086EB57
:102F500090E035C083EB90E032C084EB90E02FC06E
:102F600087EB90E02CC08CEC90E029C08DEC90E0D9
:102F700026C083E891E023C08AE891E020C082E97E
:102F800091E01DC084E991E01AC081E292E017C08F
:102F900083E292E014C084E292E011C085E292E004
:102FA0000EC086E292E00BC087E292E008C08FE696
:102FB00090E005C080E790E002C08AE292E00C94C5
:102FC0007B150895882309F45BC0682F823879F453
:102FD0000E94101581FF54C069E380911001909107
:102FE00011010E9441220E94E52069E310C083384C
:102FF000B1F40E94101580FF43C063E58091100179
:10300000909111010E9441220E94E52063E5809188
:103010001001909111010E9443220C94E520843804
:1030200079F40E94101582FF2BC067E48091100193
:10303000909111010E9441220E94E52067E4E7CFB0
:103040008CEF860F813A18F380E2860F883048F4BF
:10305000677081E001C0880F6A95EAF70E94A2209C
:10306000DCCF8BE5860F833020F480E090E00C9479
:103070006515685A673120F480E090E00C947B1568
:103080000895CF93C82F0E94CB16C93349F42FEF70
:1030900087EE93E0215080409040E1F700C00000AF
:1030A0008C2FCF910C94E217882321F00E949C2052
:1030B0000C94E5200895882321F00E94A2200C940E
:1030C000E5200895BF92CF92DF92EF92FF920F9387
:1030D0001F93CF93DF937C01062FC72FFC0115812F
:1030E00012951F70D281D1110E94B9200E949220A6
:1030F000882379F0DD2369F080E2800F883048F082
:1031000082E00E9430210E94922091E0B82EB926E0
:1031100001C0B12CCC2EC2948FE0C822D12CF60174
:10312000E859FF4F0C94CE2C8C2F807FCF708823D2
:1031300011F0C295C07FDD2399F0CC2309F48DC135
:1031400080E2800F883010F0011104C08C2F0E94A3
:103150009C2003C08C2F0E94AC200E94E5207DC1E2
:10316000802F0E94E217CC2309F4C0C180E2800FB7
:10317000883010F0011104C08C2F0E94A22003C0DF
:103180008C2F0E94B2200E94E520B0C18C2F807F3E
:10319000CF70803211F0C295C07F002319F001304A
:1031A000C9F022C0DD2371F0112341F0113031F458
:1031B0000E94CC208C2B0E94D22098C10E94CC204F
:1031C0008C2B1DC0112319F0113009F48FC10E94FE
:1031D000DB2025C0DD2321F0163008F087C10EC0AA
:1031E000153008F083C11BC0DD2361F0112331F0DD
:1031F000F701858180FF31C18F7085838C2F0E94FC
:10320000541874C1112359F0093309F037C1FFEF85
:1032100027EE83E0F15020408040E1F72DC18C2F54
:103220000E945B1863C18C2F86958695837090E011
:10323000009719F0019761F059C1DD2321F0802F2B
:103240009C2F937002C080E090E00E94651559C1E8
:10325000DD2321F0802F9C2F937002C080E090E04E
:103260000E947B154EC18C2F837009F049C0D1118B
:1032700044C1402F429546954770440F440F602F3C
:103280006F70862F90E0A0E0B0E0042E04C0880F9D
:10329000991FAA1FBB1F0A94D2F704FF10C00FE0AA
:1032A00010E020E030E004C0000F111F221F331F88
:1032B0004A95D2F7009510952095309503C000E00F
:1032C00010E09801C695C695C370D0E0BC01CD0151
:1032D000602B712B822B932BC230D10559F0C33058
:1032E000D10559F0219719F00E94D31E06C10E9402
:1032F000C11E03C10E94E51E00C10E94BF1EFDC089
:10330000DD2319F08C2F817001C08695882309F484
:10331000F4C0402F429546954770440F440F602FEC
:103320006F70862F90E0A0E0B0E0042E04C0880FFC
:10333000991FAA1FBB1F0A94D2F704FF10C00FE009
:1033400010E020E030E004C0000F111F221F331FE7
:103350004A95D2F7009510952095309503C000E06E
:1033600010E09801C695C695C370D0E0BC01CD01B0
:10337000602B712B822B932BC230D10559F0C330B7
:10338000D10559F0219719F00E94991FB6C00E94EB
:10339000871FB3C00E94AB1FB0C00E94FA1EADC011
:1033A000CF70DD2339F08C2F0E94201F802F0E94C8
:1033B0005418A3C0802F0E945B188C2F0E94411FBD
:1033C0009CC0023F01F128F4003F41F0013FA1F011
:1033D00040C0033FF9F0043F39F13BC0DD2341F029
:1033E000153008F083C08C2F8F710E94661F7EC03D
:1033F000163008F07BC0F7CFDD2339F08C2F8F71AA
:103400000E94201F73C0DD23C9F38C2F8F710E948F
:10341000411F6CC0DD2329F08C2F8F710E940B1F80
:1034200065C00E94061F62C0DD2349F0CF718C2F5A
:103430000E94201F63E08C2F0E941B2157C081E057
:103440000E943021123008F451C082E00E943021E5
:103450004DC0DD2331F0112389F2802F0E94CB165D
:1034600045C0112391F2093349F49FEFE7EEF3E0F1
:103470009150E040F040E1F700C00000802F0E9432
:10348000E21734C04C2F4F70602FC7010E94CB0849
:103490000E94321E36C0D11134C0CF70D0E0C2308D
:1034A000D10599F03CF4209769F02197F9F40E9436
:1034B000CA2327C0C430D10571F054F02597B1F468
:1034C00080E00AC00E9492231CC00E943E2419C0C2
:1034D0000E945A2416C084E00E94982412C04C2FE7
:1034E0004F70602FC7010E94CE080BC028E0C21A9F
:1034F000D10884E0C816D10420F40E9410150E945F
:10350000BF06BB20D1F00E948E2080FD16C0F701BF
:1035100012820E9488200E94201FC7010E94A71AC1
:103520000E948820DF91CF911F910F91FF90EF9023
:10353000DF90CF90BF900C94411FDF91CF911F91EE
:103540000F91FF90EF90DF90CF90BF9008950F9371
:103550001F93CF93DF93EC01888199812B813C816C
:10356000232BB9F09F3F11F48F3F99F0CE010E94B9
:10357000D106882371F0688179818A810E94652053
:103580008C010E94BD1F0E94BE1EB801CE010E9488
:103590006218DF91CF911F910F9108950E94B92079
:1035A0000E94C9200E94E52080E090E00E946515FD
:1035B00080E090E00C947B158091100190911101B6
:1035C0000E9445220C94CE1A0E94A9200C94DC1A69
:1035D000E92FE295EF70F0E03297EE30F105B0F4AC
:1035E000E858FF4F0C94CE2C803F91F018F4883EA1
:1035F00068F40EC0843F51F40BC0883E48F0813F10
:1036000029F406C093FB882780F9089580E0089587
:1036100081E008950E945A200E94E81A0895CF93ED
:10362000DF9300D000D01F92CDB7DEB70F900F9080
:103630000F900F900F90DF91CF910895CF93DF936C
:1036400000D000D000D0CDB7DEB726960FB6F894E4
:10365000DEBF0FBECDBFDF91CF9108951F93CF93F3
:10366000DF93C091990116E080919A01C81799F0F3
:10367000D0E01C9FF0011D9FF00D1124E556FE4F78
:103680004081518162817381848195810E941E1BDA
:103690002196C770E9CFDF91CF911F910895409196
:1036A000CB015091CC016091CD017091CE01809100
:1036B000CF019091D0010C941E1B8091D001829576
:1036C0008F7009F054C08091CD01882309F44FC058
:1036D00080919901A0919A016091CB017091CC01E8
:1036E0004091CE015091CF01B6E08A1709F43FC056
:1036F00090E041155105C1F17F3F11F46F3FA1F1F9
:10370000B89FF001B99FF00D1124E556FE4F2181BD
:1037100072132AC02081621327C02281211124C084
:10372000238134812417350710F421503109241BDB
:10373000350B283C3105C0F42091D0012F70206159
:103740002093D00126E0289FF001299FF00D11243D
:10375000E056FE4F80818F70806180838BEC91E01A
:103760000E94A71A0C942E1B01968770BECF089555
:10377000CF92DF92EF92FF920F931F93CF93DF933D
:10378000CDB7DEB762970FB6F894DEBF0FBECDBFE0
:103790008C0185E0F801DE011D9601900D928A955D
:1037A000E1F7D8014C9111965C91119712966C91AA
:1037B00012971396CD90DC9014973091CB017091B5
:1037C000CC018091CE019091CF01009709F46BC19B
:1037D0007F3F19F43F3F09F466C1E090CD01EE2030
:1037E00009F4C0C02091D001C816D90628F0F6010E
:1037F000E81BF90BCF0104C0809590958C0D9D1DA1
:10380000FF24F394883C910578F0F12C207F09F097
:10381000C6C07C2DD98AC88A89890E940F1B8BEC6F
:1038200091E00E94A71AB1C0822F807F09F046C0A4
:10383000751314C0341312C0611110C02F702061B1
:103840002093D0010E944F1B8BEC91E00E94A71A9D
:103850008091D001D80115968C932EC0CD2819F1F6
:103860005F3F11F44F3FF9F0F62E61111CC08091BB
:10387000990120919A0136E0821709F45AC090E02C
:10388000389FF001399FF00D1124E556FE4F7181EC
:10389000571306C07081471303C07281711103C0B2
:1038A00001968770E9CFF62E662309F427C180912F
:1038B000D00181608093D001F12C20C1751308C024
:1038C000341306C0611104C08091D001D801C3C077
:1038D0004D875E878D859E856A8B0E940A1B6A894B
:1038E0008823E1F16623D1F12091D001822F8295C6
:1038F0008F7090E0029774F08091CB019091CC0191
:1039000098878F831986DB86CA862C87CE01079617
:103910000E94A71A86E0F801ABECB1E001900D928D
:103920008A95E1F70E945D1B0E944F1BFF24F394D0
:10393000E5C04D875E878D859E850E945A20292F80
:1039400022952F7030E0223031050CF0CBC09F70F3
:1039500009F0C5C0805E883008F4D0C0C8010E945C
:10396000A71AE4CFC816D90608F453C0F601E81B1D
:10397000F90BCF01883C910508F450C0F12C7C2D47
:10398000D98AC88A89890E940F1BEBECF1E086E096
:10399000DF011D928A95E9F70E944F1BAFC0751396
:1039A00014C0341312C0611110C08091D001F8010D
:1039B0008583C8010E94A71A86E0EBECF1E0DF01E5
:1039C0001D928A95E9F7FE2C99C04D875E878D85FB
:1039D0009E856A8B0E940A1B6A89882309F4BECFE0
:1039E000662309F4BBCF2091D001822F82958F707E
:1039F00090E002970CF48ECF8091CB019091CC0196
:103A00009A8389831B82DD82CC822E83CE0101962C
:103A10007FCF809590958C0D9D1DACCFF62E6623A3
:103A200009F49CCF75132EC034132CC02091D00103
:103A300020FD1FC0822F82958F70D9F0D801159676
:103A40002C9315978F3049F08F5F982F9295907F28
:103A5000822F8F70892B15968C93C8010E94A71A0C
:103A600086E0F801ABECB1E001900D928A95E1F7A8
:103A700093CF86E0F801ABECB1E001900D928A950E
:103A8000E1F73CC04D875E878D859E850E940A1BAD
:103A9000811140CF8091D00181608093D001C80115
:103AA0000E94A71A2BC0662309F458CF4D875E8762
:103AB0008D859E850E940A1BF82E882309F44ECF1F
:103AC00086E0F801ABECB1E001900D928A95E1F748
:103AD0008BEC91E00E94C5160E945D1B5DCF8111A9
:103AE00039CF0CC0243031050CF038CF9F7009F469
:103AF00031CFF8019581907F09F02CCF8F2D629600
:103B00000FB6F894DEBF0FBECDBFDF91CF911F91EE
:103B10000F91FF90EF90DF90CF9008951F93CF9378
:103B2000DF93CDB7DEB72C970FB6F894DEBF0FBE8C
:103B3000CDBF4F83588769877A878B879C87CE0153
:103B400007960E94B81B882369F08F8198852A8583
:103B50003B85232BF1F19F3F09F063C08F3F09F0B4
:103B600060C037C086E0FE013796DE0111960190F5
:103B70000D928A95E1F76F817885EA85FB8530970C
:103B800041F17F3F11F46F3F21F120919A0130E024
:103B9000C9010196877099274091990150E08417D7
:103BA000950709F447C069837A83FD83EC8396E027
:103BB000929FD001939FB00D1124A556BE4FFE01D8
:103BC000319601900D929A95E1F780939A010E94A7
:103BD0002E1B16E08091990190919A018917C1F1ED
:103BE000189FC001112485569E4F0E94B81B882340
:103BF00079F1E09199011E9FF0011124E556FE4FE5
:103C00004081518162817381848195810E941E1B54
:103C10008091990190E0019687709927809399018E
:103C2000D9CF4F81588569857A858B859C850E947F
:103C30001E1BCFCF0E94E41A10929A011092990194
:103C4000EBECF1E086E0DF011D928A95E9F7C1CF48
:103C50002C960FB6F894DEBF0FBECDBFDF91CF918B
:103C60001F910895EF92FF920F931F93CF93DF93CD
:103C70008C01892B09F46CC0F12CEE24E394E8014B
:103C80002196F8018491843740F4843008F051C0C3
:103C9000813081F0823019F15BC0853709F444C06E
:103CA000A8F19CE7980F903708F052C08F770E94D8
:103CB000E21741C00E5F1F4FFE01C49180E28C0FDE
:103CC000883048F4C7708E2D01C0880FCA95EAF776
:103CD0000E94BC2014C08C2F0E94CB162DC00E5FFA
:103CE0001F4FFE01C49180E28C0F883058F4C770DA
:103CF0008E2D01C0880FCA95EAF70E94C2200E944B
:103D0000E5201AC08C2F0E94E21716C00E5F1F4FCD
:103D1000FE01C491CC2381F08FE99FE00197F1F778
:103D200000C00000C150F6CF0E5F1F4FFE01F4909F
:103D300003C00E94CB168E018F2D882309F49FCFDC
:103D4000EFE9FFE03197F1F700C000008150F5CFB7
:103D5000DF91CF911F910F91FF90EF9008950895FB
:103D60000C94AF1E0E94B01E6093F3017093F40197
:103D70008093F5019093F6010C94CE1A08950C945B
:103D8000B21E0F931F930091F3011091F401209143
:103D9000F5013091F601602B712B822B932B1F9133
:103DA0000F910C94B21E0F931F930091F301109189
:103DB000F4012091F5013091F601602371238223F3
:103DC00093231F910F910C94B21E0F931F93009198
:103DD000F3011091F4012091F5013091F601602773
:103DE0007127822793271F910F910C94B21E08957B
:103DF0000C94F71E0E94F81E6093EF017093F0017F
:103E00008093F1019093F2010C94CE1A60E070E07F
:103E1000CB010C94FA1E0F931F9341E050E060E039
:103E200070E08A019B0104C0000F111F221F331F85
:103E30008A95D2F7C901B8011F910F910C94FA1E0F
:103E40000F931F9341E050E060E070E004C0440F26
:103E5000551F661F771F8A95D2F78091EF019091C9
:103E6000F001A091F101B091F2018A019B01082BB0
:103E7000192B2A2B3B2BC901B8011F910F910C94D0
:103E8000FA1E0F931F9341E050E060E070E004C021
:103E9000440F551F661F771F8A95D2F7409550959E
:103EA000609570958091EF019091F001A091F101E2
:103EB000B091F2018A019B01082319232A233B2395
:103EC000C901B8011F910F910C94FA1E0F931F9313
:103ED00041E050E060E070E004C0440F551F661FF1
:103EE000771F8A95D2F78091EF019091F001A09110
:103EF000F101B091F2018A019B01082719272A27B5
:103F00003B27C901B8011F910F910C94FA1E0F9322
:103F10001F930091EF011091F0012091F101309178
:103F2000F201602B712B822B932B1F910F910C941C
:103F3000FA1E0F931F930091EF011091F001209151
:103F4000F1013091F20160237123822393231F91A9
:103F50000F910C94FA1E0F931F930091EF01109193
:103F6000F0012091F1013091F20160277127822741
:103F700093271F910F910C94FA1E08952CE0929FA5
:103F8000800D1124A82FA695A695A695877051E0BF
:103F900001C0550F8A95EAF785E0A89FD00111244A
:103FA00020E030E070E0F901EA0FFB1FEF52FE4F16
:103FB0004081CB01022E02C0969587950A94E2F7C4
:103FC00081709927819584278523842780832F5F9B
:103FD0003F4F2530310539F708952CE0929F800D31
:103FE0001124682F669566956695982F977085E0E1
:103FF000689FB001112440E050E080E0FA01E60F34
:10400000F71FEF52FE4F208130E0092E02C0369597
:1040100027950A94E2F721703327042E01C0220F5E
:104020000A94EAF7822B4F5F5F4F4530510531F715
:104030000895BF92CF92DF92EF92FF920F931F935A
:10404000CF93DF938C01C090F301D090F401E09006
:10405000F501F090F6018091EF019091F001A091AF
:10406000F101B091F201C82AD92AEA2AFB2ACFE14C
:10407000D0E0D701C6010C2E04C0B695A795979540
:1040800087950A94D2F780FF07C0BC2EB8018C2F09
:104090000E94E908019719F4219758F7B12C8B2D4C
:1040A000DF91CF911F910F91FF90EF90DF90CF9014
:1040B000BF900895CF93DF93EC010E941920BE01B9
:1040C0000E94E908DF91CF9108951F93CF93DF936A
:1040D000EB0190919801992321F0CB010E945A2085
:1040E00013C0882349F0CB010E941920182F682F94
:1040F000CE010E94BE1F04C0CB010E94ED1F182FED
:10410000BE01812F0E94E908DF91CF911F91089590
:104110008091F70185958595859508958091F701A2
:10412000877008959091F701977081E009F480E01D
:10413000089580910302089590910302892B809342
:1041400003020895809590910302892380930302CE
:10415000089510920302089590910202892B809392
:1041600002020895809590910202892380930202B1
:10417000089510920202089590910102892B809374
:104180000102089580959091010289238093010294
:1041900008951092010208958091F80108950895FC
:1041A0000C94CF209091F801981721F08093F8019A
:1041B0000C94D02008958091F801882329F0109262
:1041C000F80180E00C94D0200895E0911001F09166
:1041D0001101809103028083E0911001F09111019F
:1041E000908180910202892B8083E0911001F091EF
:1041F0001101908180910102892B80838091F801C7
:10420000882381F0E0911001F09111019081892BB8
:10421000808380911001909111010E940F228111E1
:104220000E94DB2080911001909111010C941C15CB
:1042300008950C94182198E0899F90011124262B51
:104240002093F7010E94201F8091F70185958595A5
:1042500085950C9419211092F70180E00C94192196
:104260002091F701809582238093F701982F977012
:1042700079F430E0482F082E000C550B2417350731
:1042800039F08595859585950E94411F0C942B21C9
:104290000895909363018093620108958295982F09
:1042A0009C7C392F36953695282F237344E0249F24
:1042B000C0011124932F982B292F2A7A2695892F14
:1042C0008575880F822B08951F93CF93DF931F92DC
:1042D000CDB7DEB799830E944E21182F9981892F7F
:1042E0000E944E21212F30E0322F2227A901482B96
:1042F000CA010F90DF91CF911F91089580E090E067
:104300000E94092D21E08D3E9E4F09F020E0822F72
:10431000089582E090E00C94FB2C83E090E00C94F4
:10432000FB2C84E090E00C94FB2C682F84E090E060
:104330000C940F2D86E090E00C94FB2C682F86E007
:1043400090E00C940F2DAB01BC018FE090E00C9439
:10435000212DAB01BC0183E190E00C94212D60E0A4
:1043600070E0CB010C94A92160E070E0CB010E94C9
:10437000A3210C94AF216DEE7EEF80E090E00E94CF
:104380002D2D60E082E090E00E940F2D60E083E040
:1043900090E00E940F2D1092F3011092F401109200
:1043A000F5011092F60160E084E090E00E940F2D8C
:1043B00060E085E090E00E940F2D60E086E090E0F4
:1043C0000E940F2D6FEF87E090E00E940F2D40E0DC
:1043D00050E0BA0188E090E00E94212D60E08DE07D
:1043E00090E00E940F2D40E050E0BA0188E190E09B
:1043F0000E94212D60E087E190E00E940F2D40E0B7
:1044000050E0BA018CE190E00E94212D60E080E252
:1044100090E00E940F2D0C94B4210C94BB21FC0160
:10442000329697E080E0915029F021912223D9F330
:104430008F5FF9CF08959C01FC0132969FEF80E0D9
:104440004191461789F09F3F19F4411101C0982FFF
:104450008F5F8630A9F79F3F39F0F901E90FF11D11
:1044600097FDFA95628308950895FC0132960896A7
:104470002081261301C010823196E817F907C1F791
:1044800008950C941B220C943522029626E0FC0120
:1044900011922A95E9F7089508950C944C220E94F0
:1044A0004D2280914E02843061F11092050220E489
:1044B00088E190E00FB6F894A895809360000FBE55
:1044C0002093600080E00E94440680E00E94BF06C6
:1044D0000E944D2283B7817F846083BF83B7816050
:1044E00083BF7894889583B78E7F83BF0FB6F89487
:1044F000A8958091600088618093600010926000B0
:104500000FBE089508950895CF930E9482220E94BD
:104510002D0C0E948322C0E08C2F0E947E0B892BE1
:1045200029F4CF5FC430C1F780E001C081E0CF91B2
:10453000089508950C9499220E94E41A0E94712310
:104540000E9410150E94BF060C949A221F920F928F
:104550000FB60F9211248F939F93AF93BF938091C7
:104560000502811113C08091430290914402A091F1
:104570004502B09146024196A11DB11D80934302B0
:1045800090934402A0934502B0934602BF91AF912D
:104590009F918F910F900FBE0F901F90189582E002
:1045A00084BD93E095BD9AEF97BD80936E0008950A
:1045B0002FB7F8948091430290914402A091450254
:1045C000B09146022FBF0895CF92DF92EF92FF92F3
:1045D0000F931F932FB7F8944091430250914402D8
:1045E00060914502709146022FBF6A017B01EE2463
:1045F000FF248C0120E030E0C016D106E206F3066D
:1046000010F4415051099A01281B390BC9011F911F
:104610000F91FF90EF90DF90CF90089578941F92C4
:104620000F920FB60F9211248F939F93AF93BF9366
:104630008091430290914402A0914502B0914602BC
:104640000196A11DB11D8093430290934402A09353
:104650004502B0934602BF91AF919F918F910F9009
:104660000FBE0F901F90189581E08093E00080E2CC
:104670008093D8001092C9008FE19EE40197F1F772
:1046800000C0000087E090EBDC018093570290931C
:104690005802A0935902B0935A029CE088E10FB6E9
:1046A000F894A895809360000FBE90936000FFCFB0
:1046B0000E947E21811102C00E940D220E94892148
:1046C000809304020E94912190E09093480280938D
:1046D00047020E948D21682F70E080E090E00C94EA
:1046E000BF1E0E947E21811102C00E940D220E94E5
:1046F0009A2180934902282F26952695269530E009
:104700002530310524F087708062809349028091C2
:10471000490280FF04C086958695869501C080E099
:104720000C94440620914902822F869586958695A1
:10473000482F50E04430510554F48F5F982F990F63
:10474000990F990F822F8770892B8093490280914E
:1047500049028160809349020E949E218091040257
:1047600080FF11C0809149028695869586951F929B
:104770008F938AE798E09F938F930E94E6050F90AE
:104780000F900F900F90809149028695869586959F
:104790000C94440680914902982F9695969596958B
:1047A000A1F0915E990F990F990F8770892B8093D3
:1047B0004902887F91E009F490E08091490290FBE2
:1047C00080F9809349020E949E218091040280FF1B
:1047D00011C0809149028695869586951F928F9388
:1047E00082E698E09F938F930E94E6050F900F90CA
:1047F0000F900F90809149028695869586950C942E
:1048000044068091490280FD1FC081608093490267
:10481000813019F489E080934902809149020E9415
:104820009E218091040280FF08C08AE398E09F9354
:104830008F930E94E6050F900F9080914902869514
:10484000869586950C94440608958091490280FFD0
:1048500014C08E7F809349020E949E2180910402A1
:1048600080FF08C087E298E09F938F930E94E6053F
:104870000F900F9080E00C9444060895CF93C09160
:104880004902C1708091040280FF0CC01F92CF9337
:104890008CE498E09F938F930E94E6050F900F9011
:1048A0000F900F90CC2319F0CF910C942524CF9129
:1048B0000C94012490914902892F869586958695BE
:1048C0008F5F8F719770853038F4880F880F880F4D
:1048D000892B8093490202C090934902809149023A
:1048E000887F91E009F490E08091490290FB80F983
:1048F000809349020E949E218091040280FF11C092
:10490000809149028695869586951F928F9383E1C3
:1049100098E09F938F930E94E6050F900F900F9061
:104920000F90809149028695869586950C94440651
:10493000853008F084E0880F880F880F9091490235
:104940009770892B80934902887F91E009F490E069
:104950008091490290FB80F9809349020E949E2138
:10496000809149028695869586950C94440680919F
:104970001102089508959FB7F894109208029FBFFE
:1049800090914E02943009F057C09091E9009F70C9
:104990003091EC00232F217030FD20E8922B23E092
:1049A0002093E9002091EB0020FF43C02091EE000E
:1049B00027FF3FC020910602222321F02091E8002A
:1049C00025FF37C01092060226E03091E80035FD41
:1049D00015C030914E02343061F53091EB0035FD59
:1049E00028C0215021F481E08093060222C0EFE923
:1049F000FFE03197F1F700C00000E7CF8093F100AE
:104A00008091E80085FD0AC08091E80080FFFCCF1E
:104A10008091E8008E778093E80006C08FB7F89405
:104A200021E0209308028FBF9F709093E90080E0FF
:104A300008959F709093E9008FEF08950F931F934F
:104A4000CF93DF9300D01F92CDB7DEB78C010E94C9
:104A5000B027823011F0843021F584E089831B83F4
:104A60000A8382E08093E9008FEF9091E800815003
:104A700095FD06C095ED9A95F1F700008111F5CFEF
:104A80008091E80085FF0DC040E050E063E070E0F9
:104A9000CE0101960E94CD278091E8008E77809309
:104AA000E8000F900F900F90DF91CF911F910F9121
:104AB0000895CF93DF9300D01F92CDB7DEB720913A
:104AC0004E02243031F523E02983805891099B83DD
:104AD0008A8382E08093E9008FEF9091E800815013
:104AE00095FD06C095ED9A95F1F700008111F5CF7F
:104AF0008091E80085FF0DC040E050E063E070E089
:104B0000CE0101960E94CD278091E8008E77809398
:104B1000E8000F900F900F90DF91CF910895CF9301
:104B2000DF93EC010E94B027823011F0843039F518
:104B300081E08093E9008FEF9091E800815095FD2E
:104B400006C095ED9A95F1F700008111F5CF80919F
:104B5000E80085FF14C040E050E068E070E0CE015E
:104B60000E94CD278091E8008E778093E80088E04E
:104B7000FE01A9E0B2E001900D928A95E1F7DF9184
:104B8000CF91089587EB98E00E944D0580914D02EA
:104B9000811109C00E9462290E94BF298091E20010
:104BA00084608093E200089583EB98E00E944D05B5
:104BB00010924D0208958FEA98E00C944D058BEA0F
:104BC00098E00C944D0587EA98E00E944D050C94FE
:104BD0009C22209107022F5F822F62E30E94782C93
:104BE000992319F0209307020895109207028091EB
:104BF0000802882371F180914E02843041F5809142
:104C0000E9008F702091EC00922F917020FD90E8C8
:104C1000892B93E09093E9009091EB0090FF14C0F2
:104C20009091EE0097FF10C09091E80095FF03C0AF
:104C30001092F100F9CF9091E80090FF05C090919B
:104C4000E8009E779093E8008F708093E9001092BF
:104C50000802089542E061EC81E00E94DC2842E213
:104C600061EC82E00E94DC2842E261EC83E00C947B
:104C7000DC2880915002833009F460C030F4813028
:104C800071F0823009F499C008958A3009F485C022
:104C90008B3009F46BC0893009F0A7C020C0809127
:104CA0004F02813A09F0A1C08091E800877F80938C
:104CB000E8008091530290915402892B21F468E01E
:104CC00089E092E003C060E080E090E070E00E9444
:104CD00018288091E8008B778093E80008958091F0
:104CE0004F02813209F081C08091530290915402A9
:104CF000029708F07AC08091E800877F8093E800EF
:104D00008091E80082FD05C080914E028111F8CFAC
:104D10006CC02091F3008091F20090E0922B0297FA
:104D200029F48091F1008B7F813021F48091F10092
:104D3000809311028091E8008B7753C080914F02DD
:104D4000813A09F052C08091530290915402892B0C
:104D500009F04BC08091E800877F8093E800809144
:104D6000E80080FFFCCF80911C0136C080914F028B
:104D70008132D9F58091530290915402892BA9F583
:104D80008091E800877F8093E8000E94112980913C
:104D9000510280931C010C94E41A80914F028132DD
:104DA00021F58091E800877F8093E8000E94112917
:104DB0008091520280931202089580914F02813AAD
:104DC000A1F48091E800877F8093E8008091E8005B
:104DD00080FFFCCF809112028093F1008091E80067
:104DE0008E778093E8000C941129089584B7877F0B
:104DF00084BF0FB6F894A895809160008861809375
:104E00006000109260000FBE80E8809361001092F5
:104E100061000E949F150E9462290E94BF29809113
:104E2000E20084608093E2008BEB94E20E944921CF
:104E300078940E944D2C0E94A71582E191E00E9477
:104E40000B1586E998E00E944D0580914E02853051
:104E500089F482E998E00E944D050E944F228091DA
:104E60004C02882391F30E948422882371F30E94CC
:104E7000B727EBCF0E94DB150E948E13E6CF0C9470
:104E80004127292F332723303105C9F064F421301D
:104E9000310581F02230310509F049C08BE590E001
:104EA0002BEE38E048C02132310521F122323105A4
:104EB00071F13DC082E190E026E439E03CC09927E1
:104EC0008130910571F02CF4892B89F5E7EEF8E03B
:104ED0000DC08230910541F0039749F5EBEBF8E006
:104EE00005C0E5EDF8E002C0E1ECF8E0849190E067
:104EF0009F0121C063307105D0F4660F771FFB015D
:104F0000E55AFE4F2081318189E090E014C0633082
:104F1000710568F4FB01EE0FFF1FEB5AFE4F208175
:104F20003181FB01EE5AFE4F808190E004C080E0A9
:104F300090E020E030E0FA01318320830895089565
:104F4000CF93C82F0E949F27C0931302CF9108953B
:104F500080914E02843011F081E0089582E008953E
:104F600080911302811102C00C94A827089580E15A
:104F700089BD82E189BD09B400FEFDCF8091D800D2
:104F80008F7D8093D8008091E00082608093E00064
:104F90008091E00081FDFCCF0895CF92DF92EF92E7
:104FA000FF920F931F93CF93DF93EC018B016A0164
:104FB0000E943029811133C0C114D10439F0F601A7
:104FC00080819181081B190BC80FD91FE12CF12C8E
:104FD0000115110519F18091E80085FD16C0809139
:104FE000E8008E778093E800C114D10449F0F601FF
:104FF00080819181E80EF91EF182E08285E00FC088
:105000000E943029882321F30AC089918093F100FE
:1050100001501109FFEFEF1AFF0ADACF80E0DF91AC
:10502000CF911F910F91FF90EF90DF90CF90089557
:1050300020915502309156022617370748F0611526
:10504000710539F42091E8002E772093E80001C023
:10505000B90140E061157105A9F120914E022223AA
:1050600009F443C0253009F442C02091E80023FD33
:1050700040C02091E80022FD32C02091E80020FFCE
:10508000E9CF4091F3002091F20030E0342BFC0195
:10509000CF016115710559F02830310540F4819137
:1050A0008093F100615071092F5F3F4FF1CF41E0D4
:1050B0002830310509F040E02091E8002E77209358
:1050C000E800C8CF4111C9CF0AC080914E028823A1
:1050D00061F0853061F08091E80083FD0AC0809125
:1050E000E80082FFF2CF80E0089582E0089583E037
:1050F000089581E0089520915502309156022617B7
:10510000370748F06115710539F42091E8002E77D2
:105110002093E80001C0B901FC0120E06115710590
:1051200091F180914E02882309F440C0853009F442
:105130003FC08091E80083FD3DC08091E80082FD82
:105140002FC08091E80080FFE9CF2091F30080918B
:10515000F20090E0922B6115710559F088309105AD
:1051600040F424912093F100319661507109019629
:10517000F2CF21E0089709F020E08091E8008E77D7
:105180008093E800CBCF2111CCCF0AC080914E0292
:10519000882361F0853061F08091E80083FD0AC0CA
:1051A0008091E80082FFF2CF80E0089582E00895C8
:1051B00083E0089581E00895982F973058F59093F3
:1051C000E900981739F07091EC002091ED005091B2
:1051D000F00003C0242F762F50E021FF19C030913A
:1051E000EB003E7F3093EB003091ED003D7F30933C
:1051F000ED003091EB0031603093EB007093EC00E8
:105200002093ED005093F0002091EE0027FF07C09F
:105210009F5FD3CF8F708093E90081E0089580E095
:10522000089580914F0287FF11C08091E80082FDB0
:1052300005C080914E028111F8CF11C08091E80025
:105240008B770BC080914E02882349F08091E80053
:1052500080FFF8CF8091E8008E778093E800089572
:105260002091E4003091E50095E64091EC00842F18
:10527000817040FF22C08091E80080FD1CC08091B9
:105280004E02882391F0853091F08091EB0085FDEE
:1052900010C04091E4005091E5004217530729F3F4
:1052A0009A01915011F784E0089582E0089583E017
:1052B000089581E0089580E008954091E80042FF5C
:1052C000DECF08950E94D0290E94D829E0EEF0E0B8
:1052D000808181608083E8EDF0E080818F7780833A
:1052E00019BCA7EDB0E08C918E7F8C9380818F7E6E
:1052F000808310924D0208950F931F93CF93DF93F5
:105300000E94D0290E94D829C8EDD0E088818F77EB
:10531000888388818068888388818F7D888319BC91
:1053200010924E0210924A0210924C0210924B02BE
:1053300000EE10E0F80180818B7F8083888181609E
:10534000888342E060E080E00E94DC28E1EEF0E04B
:1053500080818E7F8083E2EEF0E0808181608083B7
:10536000808188608083F80180818E7F808388813E
:1053700080618883DF91CF911F910F910895E8EDAF
:10538000F0E080818F7E8083E7EDF0E080818160B6
:10539000808384E082BF81E080934D020C947C295D
:1053A000E8EDF0E080818E7F80831092E200089526
:1053B0001092DA001092E10008951F920F920FB63A
:1053C0000F9211242F933F934F935F936F937F938B
:1053D0008F939F93AF93BF93EF93FF938091E100DF
:1053E00082FF0BC08091E20082FF07C08091E10044
:1053F0008B7F8093E1000E94E9258091DA0080FF95
:105400001FC08091D80080FF1BC08091DA008E7F82
:105410008093DA008091D90080FF0DC080E189BDC2
:1054200082E189BD09B400FEFDCF81E080934E0288
:105430000E94C22505C019BC10924E020E94D425BC
:105440008091E10080FF19C08091E20080FF15C0CB
:105450008091E2008E7F8093E2008091E200806183
:105460008093E2008091D80080628093D80019BCBC
:1054700085E080934E020E94DF258091E10084FF49
:1054800030C08091E20084FF2CC080E189BD82E1C0
:1054900089BD09B400FEFDCF8091D8008F7D809337
:1054A000D8008091E1008F7E8093E1008091E2003E
:1054B0008F7E8093E2008091E20081608093E20021
:1054C00080914A02882311F084E007C08091E300B4
:1054D00087FD02C081E001C083E080934E020E94FC
:1054E000E3258091E10083FF29C08091E20083FFE2
:1054F00025C08091E100877F8093E10082E0809366
:105500004E0210924A028091E1008E7F8093E1006A
:105510008091E2008E7F8093E2008091E2008061C2
:105520008093E20042E060E080E00E94DC2880910D
:10553000F00088608093F0000E94DB25FF91EF91DE
:10554000BF91AF919F918F917F916F915F914F919B
:105550003F912F910F900FBE0F901F9018951F92A3
:105560000F920FB60F9211242F933F934F935F9397
:105570006F937F938F939F93AF93BF93CF93DF935B
:10558000EF93FF93C091E900CF708091EC00D82F8A
:10559000D17080FDD0E81092E9008091F000877F03
:1055A0008093F00078940E94F32A1092E900809191
:1055B000F00088608093F000CD2BCF70C093E9009D
:1055C000FF91EF91DF91CF91BF91AF919F918F911B
:1055D0007F916F915F914F913F912F910F900FBEEF
:1055E0000F901F9018951F93CF93DF93CDB7DEB721
:1055F000AA970FB6F894DEBF0FBECDBFEFE4F2E07E
:1056000088E08E0F9091F10091938E13FBCF0E9452
:1056100039268091E80083FF28C180914F02909144
:105620005002492F50E04A30510508F01EC1FA01DE
:10563000EA57FF4F0C94CE2C803821F0823809F0C5
:1056400014C108C080914B0290914C02992389F0BB
:1056500082600FC0809153028F70873008F005C1BF
:105660008093E9008091EB0085FB882780F91092F8
:10567000E9009091E800977F9093E8008093F10013
:105680001092F100D0C0282F2D7F09F0EEC08823A2
:1056900019F0823061F0E9C080915102813009F047
:1056A000E4C0933009F080E080934C022EC08091DA
:1056B000510281112AC0809153028F702FEF280F61
:1056C000263008F0D2C08093E9002091EB0020FF43
:1056D0001CC0933021F48091EB00806214C0909143
:1056E000EB0090619093EB0021E030E0A90102C053
:1056F000440F551F8A95E2F74093EA001092EA00A2
:105700008091EB0088608093EB001092E90080911B
:10571000E800877F8093E8000E941129A6C08111CC
:10572000A4C0109151021F778091E3008078812BF3
:105730008093E3008091E800877F8093E8000E94D7
:1057400011298091E80080FFFCCF8091E300806800
:105750008093E300111102C082E001C083E08093D6
:105760004E0283C08058823008F07FC08091510281
:10577000909152028C3D53E0950779F583E08A833E
:105780008AE289834FB7F894DE01139620E03EE069
:1057900051E2E32FF0E050935700E49120FF03C063
:1057A000E295EF703F5FEF708E2F90E0EA3010F0DF
:1057B000C79601C0C0968D939D932F5F243149F702
:1057C0004FBF8091E800877F8093E8006AE270E035
:1057D000CE0101960E94182815C060915302709165
:1057E0005402AE014F5F5F4F0E943F27BC01892BDF
:1057F000E1F19091E800977F9093E80089819A8188
:105800000E947B288091E8008B778093E8002DC070
:10581000803859F58091E800877F8093E800809177
:105820004A028093F1008091E8008E7773CF811156
:105830001CC0909151029230C0F48091E800877FA3
:105840008093E80090934A020E94112980914A02B5
:10585000811106C08091E30087FD02C081E001C094
:1058600084E080934E020E942A268091E80083FF04
:105870000AC08091E800877F8093E8008091EB0068
:1058800080628093EB00AA960FB6F894DEBF0FBE3D
:10589000CDBFDF91CF911F910895CF9380914E029C
:1058A0008823A1F0C091E900CF709091EC00892F7E
:1058B000817090FD80E8C82B1092E9008091E8008B
:1058C00083FD0E94F32ACF70C093E900CF91089521
:1058D000DB018F939F930E94E32CBF91AF91A29F16
:1058E000800D911DA39F900DB29F900D11240895DE
:1058F000991B79E004C0991F961708F0961B881F22
:105900007A95C9F780950895AA1BBB1B51E107C082
:10591000AA1FBB1FA617B70710F0A61BB70B881F3F
:10592000991F5A95A9F780959095BC01CD010895CE
:1059300097FB072E16F4009407D077FD09D00E943C
:10594000842C07FC05D03EF4909581959F4F0895D7
:10595000709561957F4F0895A1E21A2EAA1BBB1B7B
:10596000FD010DC0AA1FBB1FEE1FFF1FA217B3072B
:10597000E407F50720F0A21BB30BE40BF50B661F41
:10598000771F881F991F1A9469F760957095809505
:1059900090959B01AC01BD01CF010895EE0FFF1F53
:1059A0000590F491E02D0994A29FB001B39FC0012E
:1059B000A39F700D811D1124911DB29F700D811D3B
:1059C0001124911D08950E94D42CA59F900DB49F81
:1059D000900DA49F800D911D11240895FC0141504C
:1059E000504030F001900616D1F73197CF0108955D
:1059F000882799270895F999FECF92BD81BDF89A1D
:105A0000992780B50895A6E1B0E044E050E00C94F9
:105A1000352DA8E1B0E042E050E00C94352D262F62
:105A2000F999FECF92BD81BDF89A019700B4021694
:105A300039F01FBA20BD0FB6F894FA9AF99A0FBE42
:105A400008950396272F0E94102D0E940F2D252FB9
:105A50000E94102D242F0C94102D0196272F0E94A8
:105A6000102D0C940F2DDC01CB01FC01F999FECF18
:105A700006C0F2BDE1BDF89A319600B40D924150D6
:0A5A80005040B8F70895F894FFCFE6
:105A8A0001020E0E0E01191A1B1C1D1E1F202122B7
:105A9A00F901B7248F25BA2459251E2501F0F1F4FE
:105AAA00F5F6F733313095376790919293000102FA
:105ABA000202020606060909090909090F0F0F0F52
:105ACA000F0F15151518191919191919191919195D
