:100000000C948A050C94D1050C94D1050C94D1055F
:100010000C94D1050C94D1050C94D1050C94D10508
:100020000C94D1050C94D1050C94892B0C945D2C67
:100030000C9474240C94D1050C94D1050C94D10526
:100040000C94D1050C94D1050C94D1050C94D105D8
:100050000C94D1050C94DA240C94D1050C94D105A0
:100060000C94D1050C94D1050C94D1050C94D105B8
:100070000C94D1050C94D1050C94D1050C94D105A8
:100080000C94D1050C94D1050C94D1050C94D10598
:100090000C94D1050C94D1050C94D1050C94D10588
:1000A0000C94D1050C94D1050C94D1053C33002857
:1000B00029203D3E202829002829203D3E207B7D07
:1000C000003D3E002B0014001A0008001500170028
:1000D0001C0018000C00120013002A002900040064
:1000E0001600070009000A000B000D000E000F00AB
:1000F00033002800E1001D001B0006001900050068
:100100001100100036003700380034000151E300C0
:10011000E2000251E0002C000000035150005100A9
:1001200052004F00350001005200010001003E0066
:100130003F00400041004200430001000100500028
:1001400051004F000100AA00A90000003C0001007E
:10015000CA5CC95CE1003A003B003C003D00AC00D9
:10016000AB000100C85CC75CC45CC35C010001005B
:10017000010001000100AE0000000100C65CC55C8A
:10018000D45CC25C35003A003B003C003D003E00C0
:100190003F004000410042004300010035021E02C2
:1001A0001F022002210222022302240225022F0024
:1001B00030003100005DFE5CFF5C010001000100C9
:1001C0000100010001003800015D01000100010093
:1001D0000100010001000100000001000100010018
:1001E0000100010000001E001F00200000000000B0
:1001F0002F0230020000000000002A000000210051
:100200002200230000000000260227020000000058
:100210000000000000002400250026002700000048
:100220002F0030002E002D003102000000000000E1
:1002300000000000000000000000010000000000BD
:100240000000000044454255473A206469736162EA
:100250006C65642E0A0044454255473A20656E613C
:10026000626C65642E0A0000000000000000002A95
:100270002B2800000000000000000000000000002B
:10028000000029000000002C1E34202122243426E6
:1002900027252E362D3738271E1F202122232425DF
:1002A000263333362E37381F0405060708090A0B94
:1002B0000C0D0E0F101112131415161718191A1B06
:1002C0001C1D2F3130232D350405060708090A0BA4
:1002D0000C0D0E0F101112131415161718191A1BE6
:1002E0001C1D2F3130354C000000000000000000C4
:1002F00000000000000000000000000000000000FE
:1003000000000000000000000000000000000000ED
:1003100000000000000000000000000000000000DD
:1003200000000000000000000000000000000000CD
:1003300000000000000000000000000000000000BD
:1003400000000000000000000000000000000000AD
:10035000000000000000000000000000000000009D
:10036000000000000000000000000000000000008D
:10037000000000000000000000000000000000007D
:100380000000000000000000010101010101000166
:10039000010101000000000000000000000000005A
:1003A0000001000100010101010101010101010140
:1003B000010101010101010101010101010101012D
:1003C0000101000000010100000000000000000029
:1003D000000000000000000000000000000000001D
:1003E000000001010101000A002530313662003AA7
:1003F000200025303258000A722F6320303132330A
:100400003435363738394142434445460A0072672D
:10041000626C696768742074696D657220646973C1
:1004200061626C652E0A007267626C69676874208D
:1004300074696D657220656E61626C65642E0A0078
:100440007267626C6967687420736574206873767C
:10045000205B4E4F454550524F4D5D3A2025752C3F
:1004600025752C25750A007267626C6967687420AF
:1004700073657420687376205B454550524F4D5D1F
:100480003A2025752C25752C25750A007267626C3B
:1004900069676874207261696E626F772073657432
:1004A000206873763A2025642C25642C25642C253D
:1004B000750A007267626C696768742064697361A9
:1004C000626C65205B454550524F4D5D3A20726726
:1004D000626C696768745F636F6E6669672E656ECC
:1004E00061626C65203D2025750A007267626C6947
:1004F00067687420656E61626C65205B454550528B
:100500004F4D5D3A207267626C696768745F636F14
:100510006E6669672E656E61626C65203D2025758B
:100520000A007267626C6967687420746F67676C31
:1005300065205B454550524F4D5D3A207267626CB5
:10054000696768745F636F6E6669672E656E616266
:100550006C65203D2025750A007267626C696768CA
:1005600074206D6F6465205B4E4F454550524F4D72
:100570005D3A2025750A007267626C6967687420AD
:100580006D6F6465205B454550524F4D5D3A2025A7
:10059000750A007267626C696768745F696E697476
:1005A000207267626C696768745F636F6E66696703
:1005B0002E6D6F6465203D20302E20577269746562
:1005C0002064656661756C742076616C7565732056
:1005D000746F20454550524F4D2E0A007267626C71
:1005E000696768745F696E6974206565636F6E66BC
:1005F0006967206973206E6F7420656E61626C6537
:10060000642E0A007267626C696768745F696E695C
:1006100074207374617274210A007267626C696776
:1006200068745F696E69742063616C6C65642E0A1E
:10063000007267626C696768745F636F6E66696792
:100640002E7370656564203D2025640A0072676220
:100650006C696768745F636F6E6669672E76616C3C
:10066000203D2025640A007267626C696768745FC8
:10067000636F6E6669672E736174203D2025640A7E
:10068000007267626C696768745F636F6E66696742
:100690002E687565203D2025640A007267686C69C4
:1006A0006768745F636F6E6669672E6D6F6465203F
:1006B0003D2025640A007267626C696768745F6335
:1006C0006F6E6669672E656E61626C65203D2025E0
:1006D000640A007267626C696768745F636F6E6654
:1006E000696720454550524F4D3A0A0000047F3F4C
:1006F0001F643214643214783C1E1E140A0522232F
:10070000252628292A2C2D2F3032333536383A3BEE
:100710003D3E4042434547494A4C4E505153555740
:10072000595A5C5E6062646668696B6D6F7173755F
:1007300077797B7D7F81838587898A8C8E9092945F
:1007400096989A9C9E9FA1A3A5A7A8AAACAEAFB16C
:10075000B3B4B6B8B9BBBCBEBFC1C2C3C5C6C7C9B6
:10076000CACBCCCDCED0D1D2D2D3D4D5D6D7D7D870
:10077000D9D9DADADBDBDBDCDCDCDCDCDDDDDDDDC2
:10078000DCDCDCDCDCDBDBDBDADAD9D9D8D7D7D6CA
:10079000D5D4D3D2D2D1D0CECDCCCBCAC9C7C6C581
:1007A000C3C2C1BFBEBCBBB9B8B6B4B3B1AFAEACC7
:1007B000AAA8A7A5A3A19F9E9C9A98969492908E72
:1007C0008C8A89878583817F7D7B79777573716F4B
:1007D0006D6B6968666462605E5C5A595755535127
:1007E000504E4C4A4947454342403E3D3B3A3836DD
:1007F000353332302F2D2C2A292826252322FFAAF3
:100800007F554000000000000000000000010101D1
:1008100001010101010102020202020202020303BC
:100820000303030303040404040405050505050686
:100830000606060607070707080808080909090A3F
:100840000A0A0B0B0B0C0C0C0D0D0D0E0E0E0F0FE0
:100850001010101111121213131414151516161767
:1008600017181819191A1A1B1C1C1D1D1E1F1F20D2
:10087000212122232324252526272828292A2B2C19
:100880002C2D2E2F30313132333435363738393A3A
:100890003B3C3D3E3F404142434445464748494B2F
:1008A0004C4D4E4F50525354555758595A5C5D5EFB
:1008B000606163646567686A6B6C6E6F7172747691
:1008C00077797A7C7D7F8182848687898B8D8E90F3
:1008D00092949597999B9D9FA1A2A4A6A8AAACAE1D
:1008E000B0B2B4B6B9BBBDBFC1C3C5C8CACCCED007
:1008F000D3D5D7DADCDEE1E3E6E8EAEDEFF2F4F7B0
:10090000F9FCFF0A002530325820006B6579626FD0
:100910006172645F7265706F72743A20000A00251C
:10092000303258006B6579626F6172645F73657411
:100930005F6C65643A20006261636B6C6967687420
:1009400020737465703A2025750A006261636B6CD0
:10095000696768742064697361626C650A0062612A
:10096000636B6C6967687420656E61626C650A0010
:100970006261636B6C6967687420746F67676C652C
:100980003A2025750A006261636B6C6967687420A0
:1009900064656372656173653A2025750A0062615A
:1009A000636B6C6967687420696E637265617365F7
:1009B0003A2025750A005B735D004B6579626F61B3
:1009C00072642073746172742E0A005B575D005B61
:1009D000535D005B525D005B445D005B435D000462
:1009E000033000000012034E004900550020004D66
:1009F0000069006E006900000010034B00420044D3
:100A000000460061006E0073000000040309040941
:100A1000025B00030100A0FA0904000001030101C8
:100A2000000921110100012240000705810308008F
:100A30000A0904010001030000000921110100015D
:100A40002236000705820320000A0904020002037F
:100A50000000000921110100012222000705830383
:100A6000200001070503032000011201100100000E
:100A70000008EDFE60600100010203010631FF097C
:100A800074A1010975150026FF00952075088102E3
:100A90000976150026FF00952075089102C0050112
:100AA0000980A10185031601002603001A81002A8E
:100AB0008300751095018100C0050C0901A1018515
:100AC00004160100269C021A01002A9C027510954A
:100AD000018100C005010906A101050719E029E708
:100AE00015002501950875018102950175088101A0
:100AF00005081901290595057501910295017503F0
:100B000091010507190029FF150026FF00950675BC
:100B1000088100C011241FBECFEFDAE0DEBFCDBFD9
:100B200004B603FE27C08091570290915802A0910D
:100B30005902B0915A028730904BA740B04BD1F484
:100B400010925702109258021092590210925A02B3
:100B500014BE84B7877F84BF0FB6F894A8958091A0
:100B60006000886180936000109260000FBEE0E03A
:100B7000F8E3099511E0A0E0B1E0E6E2FEE502C08D
:100B800005900D92A236B107D9F722E0A2E6B1E0B6
:100B900001C01D92A735B207E1F70E94A8280C9466
:100BA000E92E0C940000FF93EF93E0916201F09125
:100BB0006301309709F00995EF91FF910895FC01C9
:100BC0008591803011F0EFDFFBCF0895FF27E0E241
:100BD00030E247FF0CC0419597FF09C0EDE26095F8
:100BE000709580959095611D711D811D911D27FF48
:100BF00002C0219530E350E2AA27660F771F881FB5
:100C0000991FAA1FA41710F0A41B63955A95A9F762
:100C1000AA3008F0A95FA05DAF93F3956115710547
:100C20008105910541F7ED3211F4EF93F395F21739
:100C300018F43F93F395FBCF8F91B5DFFA95E1F769
:100C40000895E991F9918591803021F0853219F06C
:100C5000AADFF9CF089520E0E89455915532C1F309
:100C6000503311F4689455915A3348F4505390F32B
:100C7000220F022E220F220F200D250FF4CF0EF48B
:100C8000219589919991533619F3533729F15335A9
:100C900059F1BC0188279927E8945C3621F48991A1
:100CA000999168945591543639F446EF7EF077FF68
:100CB0000DC08FEF9FEF0AC055374AE039F0583525
:100CC00040E121F0523642E009F00895FF93EF939E
:100CD0007DDFEF91FF91B7CFFF93EF93FC018191FF
:100CE0008030B9F360DFFBCFFF93EF9368DFF1CF84
:100CF000DF93CF93CDB7DEB72596A3DFCF91DF91FA
:100D000008956E9A769A0C94810DFB018F3F2CE525
:100D1000920709F128F48E3F9C45B9F081E00895CF
:100D200081152DE5920749F081309D45B9F7828103
:100D30008823A1F38CEA90E005C08281882371F3B7
:100D400081EC90E00E945607E9CF8281882331F33D
:100D500088EB90E0F7CF8281882301F38FEA90E05F
:100D6000F1CF81E008950C9485061F93CF93DF9314
:100D700000D000D00F92CDB7DEB749835A836B8382
:100D80002091980189819A8121111BC06623A9F0C5
:100D90000E94C021182F682F89819A810E946C219E
:100DA00069817A81812F0F900F900F900F900F9093
:100DB000DF91CF911F910C94A50A0E949821182FC2
:100DC000EFCF0E94C02169817A81EDCFFC01408183
:100DD00051816281738184810C94B5061F93CF93F6
:100DE000DF9390E0FC01E959FD4F1491FC01E959B2
:100DF000FC4FD49189519D4FFC01C491DD2319F022
:100E000081EE0E94D018CC2319F086EE0E94D018F3
:100E1000812F0E94221ACC2319F086EE0E94D3194A
:100E2000DD2331F081EEDF91CF911F910C94D31926
:100E3000DF91CF911F910895FF920F931F93CF934E
:100E4000DF938C01F62EF8018491882349F1E801A3
:100E50002196813049F4FE011491812F0E94D0180F
:100E6000812F0E94D31906C0823089F4FE0184913B
:100E70000E94D0188E010F5F1F4F8F2D815018F3E5
:100E8000EFE9FFE03197F1F700C00000F7CF8330C2
:100E900019F4FE018491E5CF0E94EE06E801EACF45
:100EA000DF91CF911F910F91FF90089560E00C9416
:100EB0001C070C94830DE82FE295EF70F0E032A14F
:100EC000282F2F7081E090E001C0880F2A95EAF763
:100ED0008095832382A30895CF92DF92EF92FF92B1
:100EE000853030F5811125C0909180009F7D9093D1
:100EF0008000282F30E0AFEFBFEF0E947A2E42E053
:100F000096958795779567954A95D1F76C3744E123
:100F1000740798F4CB0169E070E00E942A2E709368
:100F20008B0060938A00FF90EF90DF90CF90089540
:100F300084E0909180009062DACF6A50774D8F4FB5
:100F40009F4F982F872F762F662725EF38E241E0B5
:100F500050E00E94522E69017A01CA01B9010E9433
:100F60000E2E9B01AC01C701B6010E940E2E672F09
:100F7000782F892F99276115710521E08207910546
:100F800071F66FEF7FEFCBCF269A86E30E945B0767
:100F900082E28093800089E1809381008FEF9FEF50
:100FA00090938700809386000C943A250E942E230C
:100FB000811102C00E94D4230E94C4070C948106B0
:100FC00008950C94E0070C94E10708950E94AC1C6E
:100FD0000E94E5072FEF84E39CE021508040904081
:100FE000E1F700C000000C94FE240F931F93CF93F1
:100FF000DF938C010E94E606EC01B8010E94B30663
:10100000882309F4FCC0B801CE010E94D0168823C1
:1010100009F4F5C0CB3C8CE5D80709F43EC108F0D3
:1010200051C0C33CECE5DE0709F40CC148F5C631FC
:101030008CE5D807A8F4C2309CE5D90708F09FC01A
:10104000C115ECE5DE0709F4D5C0C130DC4509F473
:10105000DCC0C801DF91CF911F910F910C94B106B4
:10106000C6318CE5D80709F44CC2C23CDC4589F78F
:10107000F8018281882309F4C2C00E947715BFC09D
:10108000F8018281C73CFCE5DF0709F4F4C068F48D
:10109000C53CECE5DE0709F4E9C008F4DEC08823AE
:1010A00009F4ADC00E944112AAC0C93C9CE5D90711
:1010B00009F4EDC008F4E5C0882309F4A0C00E943B
:1010C0007D129DC0C33DFCE5DF0709F424C190F506
:1010D000F8018281CF3CFCE5DF0709F4F3C0A8F4F6
:1010E000CD3CECE5DE0709F4E6C008F4DEC0882359
:1010F00009F485C00E946110823028F00E946110BE
:10110000853008F4B0C082E0DAC0C13D9CE5D90763
:1011100009F4F3C008F4E3C0882309F470C00E9406
:101120006110853128F00E946110873108F49BC05E
:1011300085E1C5C0CD3DFCE5DF0709F40AC1A0F497
:10114000C53D9CE5D90709F4FDC008F4EBC0CC3DD2
:10115000DC4509F07ECFF8018281882309F44FC075
:1011600080E00E9451294BC0CE3D8CE5D80709F4A0
:1011700062C0CE01875F9C45079708F06ACFF801EF
:101180008281882309F465CF0E942E23811102C039
:101190000E94D4230E9441239093480280934702E7
:1011A000CF30FCE5DF0709F491C108F00DC1C8306C
:1011B0009CE5D90709F476C108F0E0C0C430FCE52D
:1011C000DF0709F45FC108F0CBC0C2309CE5D90746
:1011D00009F452C1809147028260C330DC4509F4B2
:1011E0004EC180914702909148020E944F230E9475
:1011F000AC1C05C0F801828181110E94E60780E0E5
:10120000DF91CF911F910F910895F801828188237A
:10121000B1F390910402892F8E7F90FF81608093BB
:10122000040280FF05C086E592E00E94DF05E7CF5B
:1012300084E492E0FACFF8018281882301F30E94CE
:10124000D423DDCFF80182818823C9F20E94552280
:10125000827249F00E94BC14D2CF882381F20E948E
:1012600055228272B9F30E94AF14C9CF882339F294
:101270000E943412C4CF882309F4C1CF0E945012B7
:10128000BECF882309F4BBCF0E945F12B8CF88235A
:1012900009F4B5CF0E946E12B2CFF8018281882383
:1012A00009F4ADCF0E946910AACF882309F4A7CF13
:1012B0000E947A10A4CF882309F4A1CF81E00E9474
:1012C000BF149DCF882309F49ACF0E946110863005
:1012D00020F00E946110883030F286E0F0CF882341
:1012E00009F48DCF0E946110893028F00E946110AE
:1012F0008E3008F4B8CF89E0E2CF882309F47FCF9D
:101300000E9461108F3028F00E946110843108F42F
:10131000AACF8FE0D4CFF8018281882309F46FCF60
:1013200088E1CDCFF8018281882309F468CF0E943B
:101330006110893128F00E946110823208F493CF45
:1013400089E1BDCFF8018281882309F458CF83E277
:10135000B6CFF8018281882309F451CF82E001CF12
:10136000809147028061C630FCE5DF0709F487C041
:1013700008F48CC080914702806281C0CB309CE52C
:10138000D90709F49BC068F4C930FCE5DF0709F40C
:101390008DC0CA30DC4509F024CF809147028C60B3
:1013A0006EC0809147028B7FCD309CE5D90709F450
:1013B00066C0809147028D7FCE30DC4508F45FC067
:1013C00080914702877F5BC0C73FFCE5DF0709F4D8
:1013D00061C050F5C2319CE5D90709F47FC068F4BB
:1013E000C031FCE5DF0709F475C0C131DC4509F007
:1013F000F8CE809147028F7B42C0C4319CE5D9076B
:1014000009F478C008F46EC0C531DC4509F0E9CEB6
:101410008091470282FB992790F921E0922790FB67
:1014200082F990FB83F92BC0CA3F8CE5D80709F4F9
:1014300049C070F4C83FECE5DE0781F180914802B5
:101440008E7FC93FDC4509F0CCCE80934802C9CEDF
:10145000CC3F8CE5D80709F449C060F1CD3FDC45AD
:1014600009F0BFCE80914802982F909591708E7FA1
:10147000892B90FB81F9E9CF8091470281608093AD
:101480004702AFCE809147028460F9CF8091470236
:101490008860F5CF809148028160D7CF8091480263
:1014A0008260D3CF809147028064E9CF8091470268
:1014B0008068E5CF809148028360C7CF8091470262
:1014C0008E7FDDCF809148028D7FBFCF8091470214
:1014D0008F7ED5CF809147028F7DD1CF80914702FB
:1014E0008F77CDCF80914702837FC9CF809148020B
:1014F0008C7FABCF90914702892F97FB87F980585B
:10150000BECF0E945522F8019281992381F08A7AF8
:1015100091E009F490E090936401811106C089E2A2
:101520000E9430220E94A1226ACE85E3F9CF8091E9
:101530006401811104C089E20E943722F3CF85E360
:10154000FBCF90E080E008950895972F70E02CE0A5
:10155000929F600D711D1124FB0190E3899FE00DA6
:10156000F11D1124EE0FFF1FEC53FF4F8591949155
:101570000895FC01EE0FFF1FE951FC4F85919491F6
:101580000895CF93DF930E94A50A0E94A70CEC0157
:10159000811521E5920708F049C0811530E59307D0
:1015A00008F030C1883E910508F5803E910570F540
:1015B000883A910570F4853A910508F0AEC0813003
:1015C000910521F1009711F1049700F5D0E0C0E0FA
:1015D0001DC08F3B910508F4ABC0805C9109C03CF5
:1015E000D105A0F30E94B90AEC0110C08115904307
:1015F00088F4C11580E2D80708F0FBC0C03FD105D0
:1016000028F3CF3FD10509F008F4F1C0CE01DF91F6
:10161000CF910895C11590E4D90708F0F0C0CE012C
:101620009927D3FFE9C0EC01D86CF0CF811529E5EB
:10163000920760F5811538E5930708F029C18115F7
:1016400044E5940778F4C11583E5D80708F007C18D
:10165000C11592E5D90708F0F1C0DC2FCC27C16F86
:10166000D06AD4CF811525E5920708F40CC1811505
:1016700036E5930708F0AACF0E943E0DC82FD0E0B0
:10168000DC2FCC27CC27DF71D062C0CF8D3B9C45AF
:1016900009F403C1CE3B8CE5D807D0F4CB3B9CE5E5
:1016A000D90709F4FDC008F0FEC0C1153AE5D3071B
:1016B00008F08CCF8C2F8F700E943E0D34E0D695B1
:1016C000C7953A95E1F7CF709C2FEC01D0699ECF7A
:1016D000C03C4CE5D40709F4E9C060F4CE3B9CE57E
:1016E000D90709F4E6C0CF3BDC4509F06FCFC0E075
:1016F000D2ED8CCFCE0190568115904208F066CF86
:101700008D2F8F710E943E0D90E0982F882788279B
:101710009F719C012C2BE901B7CF853A910509F403
:10172000CBC0863A910509F0CAC0C2E8D0E46ECFBA
:10173000883A910509F4C6C0893A910509F4C5C0F3
:101740008A3A910509F4C4C08B3A910509F4C3C0E3
:101750008C3A910509F4C2C08B3B910509F4C1C0D4
:101760008C3B910509F4C0C08D3A910509F4BFC0C6
:10177000803B910509F4BEC08E3A910509F4BDC0C5
:101780008F3A910509F4BCC0813B910509F4BBC0B7
:10179000823B910509F4BAC0833B910509F4B9C0B5
:1017A000843B910509F4B8C0853B910509F4B7C0A5
:1017B000863B910509F4B6C0873B910509F4B5C095
:1017C000883B910509F4B4C0893B910509F4B3C085
:1017D0008D3B910509F4B2C08E3B910509F4B1C06F
:1017E0008A3B910509F4B0C0C0E0D4E40FCFD065C6
:1017F0000DCFCE019F70F6CEEC01D06C07CFDF701D
:10180000D06A04CFE4E096958795EA95E1F7837076
:101810002C2F26952695237040E2249F90011124B9
:10182000382B8C2F8370C1E0D0E002C0CC0FDD1FBD
:101830008A95E2F7C22BD32BDC68E8CECE01837009
:10184000992721E030E002C0220F331F8A95E2F78A
:10185000C695C69580E2C89FE0011124EBCFCE016A
:101860008370992721E030E002C0220F331F8A9550
:10187000E2F7C695C69590E2C99FE0011124C22BFC
:10188000D32BDA68C3CED82FCC27C46FD06ABECE94
:10189000D82FCC27C06FD06AB9CEC0E0D1EDB6CE7C
:1018A000C0E0D4EDB3CEC0E0D5EDB0CEC0E0D3ED16
:1018B000ADCEC0E0D0EDAACEC1E8D0E4A7CEC3E85B
:1018C000D0E4A4CEC2EED4E4A1CEC9EED4E49ECE40
:1018D000CAEED4E49BCEC5EBD4E498CEC6EBD4E4F8
:1018E00095CEC3EBD4E492CEC4EBD4E48FCEC7EB59
:1018F000D4E48CCECCECD4E489CECDECD4E486CE4A
:10190000C3E8D5E483CECAE8D5E480CEC2E9D5E405
:101910007DCEC4E9D5E47ACEC1E2D6E477CEC3E287
:10192000D6E474CEC4E2D6E471CEC5E2D6E46ECE7F
:10193000C6E2D6E46BCEC7E2D6E468CECFE6D4E406
:1019400065CEC0E7D4E462CECAE2D6E45FCE823888
:101950009105B1F1B0F48133910509F475C048F4F3
:101960008932910509F469C08A32910509F473C07E
:1019700008958533910509F459C08933910501F122
:101980000895833E9105A9F138F4803E9105F9F060
:10199000823E910549F10895863E9105A9F1873E61
:1019A0009105C9F1843E910519F52091480221FF66
:1019B0001FC08091470284FD14C087EE90E0089517
:1019C000209147022370A1F080EE90E008952091CD
:1019D000470220FD47C03091480230FF09C024FF74
:1019E00044C090E080E004C02091470222FDF7CF80
:1019F00008952091470222FD3BC03091480230FDFE
:101A0000E3CF24FFF5CFEDCF2091470223FFF0CFA6
:101A100024FDE7CFD2CF2091470223FD2CC0309187
:101A2000480231FFEECF84EE90E008952091470206
:101A300025FFDECF89E290E008952091470225FF3F
:101A4000D7CF85E390E008952091470226FFD0CFBD
:101A50008AE290E008952091470226FFC9CF81E3F2
:101A600090E0089589E390E0089583EE90E0089572
:101A700082EE90E0089586EE90E0089590914702FE
:101A800092FF06C0282F28712830F9F4877F8460E0
:101A900093FF06C0282F28712831F1F4877E8461D6
:101AA0002091480220FF06C0382F38713830D9F411
:101AB000877F816021FF06C0282F28712831D1F44B
:101AC000877E816194FD877E0895282F24712430BC
:101AD000F9F68B7F8860DCCF282F2471243101F741
:101AE0008B7E8861DDCF382F3171313019F78E7FD1
:101AF0008860E0CF282F2171213121F78E7E886107
:101B0000E1CF089508950C94820DE82FF0E0EE0FD8
:101B1000FF1FEB59FE4F808191810895CF92DF9294
:101B2000EF92FF920F931F93CF93DF9387EF93E092
:101B30000E94DF0585E6E82E81E0F82ED0E0C0E0C7
:101B400092EFC92E93E0D92E09EE13E0DF93CF93E5
:101B5000DF92CF920E9478068FEE93E00E94DF051D
:101B6000F701819191917F010E9421239F938F938F
:101B70001F930F930E94780687EE93E00E94DF0583
:101B800021968DB79EB708960FB6F8949EBF0FBEEC
:101B90008DBFC430D105D1F6DF91CF911F910F9148
:101BA000FF90EF90DF90CF900895CF93DF93A9E25D
:101BB000B1E04DE251E0C1E0D0E08D91E82FE29537
:101BC000EF70F0E061A18F709E0101C0220F8A9535
:101BD000EAF7922F9095962391A382A1822B82A35C
:101BE0004A175B0751F7ADE1B1E049E251E0C1E0CE
:101BF000D0E08D91E82FE295EF70F0E061A18F7059
:101C00009E0101C0220F8A95EAF7922F90959623A4
:101C100091A382A1822B82A34A175B0751F71092EE
:101C20006E0110926D011092660110926501109282
:101C3000700110926F01109268011092670110926A
:101C400072011092710110926A0110926901109252
:101C500074011092730110926C0110926B0184E078
:101C60000E94CC0EDF91CF910C94D6075F926F92B9
:101C70007F928F929F92AF92BF92CF92DF92EF921C
:101C8000FF920F931F93CF93DF932DE631E009E28C
:101C900011E0512CEE24E394F12CE9018990999004
:101CA0009E01DE011E921E92F80181918F01E82FA4
:101CB000E295EF70F0E091A18F70B70101C0660F5F
:101CC0008A95EAF7892F862B81A382A1662E6094DC
:101CD000862182A380EA8A95F1F78DE1C82E81E002
:101CE000D82E50E040E0E60179906E01872D829574
:101CF0008F7090E0EC0188A1AD90BC90119790E0BE
:101D0000D72DDF7002C095958795DA95E2F780FDB3
:101D100040C0C701042E02C0880F991F0A94E2F741
:101D20008A299B2911969C938E934F5F5F4F4C306D
:101D30005105C9F681A1D62DD823D1A382A1682B44
:101D400062A381E04D915C914815590509F480E04A
:101D5000582AE1E025373E0709F09FCF252D44E0C2
:101D600065E671E08DE691E00E94CD0E0E94590774
:101D7000852DDF91CF911F910F91FF90EF90DF9014
:101D8000CF90BF90AF909F908F907F906F905F901B
:101D9000089590E080E0C4CF0895FF920F931F93C1
:101DA000CF93DF93F82E092F162FD72FC42F22237E
:101DB00049F081E0809377010E94A42490937601FA
:101DC00080937501809177018823A1F0809175013E
:101DD000909176010E94B024069760F0EF2DF02FCD
:101DE000A12FBD2F90E080E0D0E08C179D0744F03C
:101DF00010927701DF91CF911F910F91FF9008957D
:101E0000219131912D933D930196EFCFAF92BF92E7
:101E1000CF92DF92FF920F931F93CF93DF93362FD2
:101E2000472F282FF82EE82FF0E071110FC0ED5F3B
:101E3000F74F6491762F862FDF91CF911F910F91ED
:101E4000FF90DF90CF90BF90AF900895072F10E0E4
:101E500056E0659FC0011124CFEFD0E0BE010E9483
:101E60002A2E832F90E0880F991F35E5369FD001E9
:101E7000379FB00D11248A1B9B0B982F990F980F39
:101E80006E01C01AD10ACE9ED001CF9EB00DDE9E4B
:101E9000B00D11248B2F949FA0011124452F55279D
:101EA0006E01C41AD50ACE9EA001CF9E500DDE9EB3
:101EB000500D11245E01A91AB108A09E6001A19ED7
:101EC000D00CB09ED00C1124CD2CDD24CC19DD0912
:101ED000CE9F8001CF9F100DDE9F100D1124912FFA
:101EE0006230710509F148F46115710569F06130DE
:101EF0007105F1F09B2F852F07C064307105D9F073
:101F0000F0F066307105B1F7E22FF0E0ED5FF74FCA
:101F10007491E92FF0E0ED5FF74F6491E82FF0E066
:101F2000ED5FF74F849188CF922F2B2F812FECCF2D
:101F3000922F252FE9CF9B2F822F212FE5CF2B2FFB
:101F40008F2D952FE1CF0895CF93DF93762FE90161
:101F5000682F842F0E94060F798368838A83DF911C
:101F6000CF91089580911402982F9E7F29F481705B
:101F700082608093140208958A34E8F38170886443
:101F8000F8CF88E090E00C94A92ECF92DF92EF92E8
:101F9000FF926B017C010E94B20FB701A60188E09D
:101FA00090E0FF90EF90DF90CF900C94C72EE4E18B
:101FB000F2E083E0808311828FEF82838383148237
:101FC00060817181828193810C94C50F809104029C
:101FD00080FF76C083ED96E09F938F930E947806F2
:101FE000809104020F900F9080FF6AC080911402CC
:101FF00081701F928F9386EB96E09F938F930E9440
:102000007806809104020F900F900F900F9080FF40
:1020100057C08091140286951F928F938BE996E0AA
:102020009F938F930E947806809104020F900F90E7
:102030000F900F9080FF44C0809115021F928F93E4
:1020400081E896E09F938F930E9478068091040226
:102050000F900F900F900F9080FF32C0809116026A
:102060001F928F9387E696E09F938F930E94780646
:10207000809104020F900F900F900F9080FF20C06E
:10208000809117021F928F938DE496E09F938F9318
:102090000E947806809104020F900F900F900F908D
:1020A00080FF0EC0809118021F928F9381E396E00B
:1020B0009F938F930E9478060F900F900F900F9030
:1020C00008958091140280FF02C08695089580E0F3
:1020D000089580911802833018F48F5F809318025E
:1020E000609114027091150280911602909117026E
:1020F0000C94C50F80911802882319F081508093A9
:10210000180260911402709115028091160290914C
:1021100017020C94C50F6091040170E080911402C5
:1021200080FF0AC080917C0123E0829FC0011124BE
:10213000875E9D4F0C94601680917B019091030106
:1021400023E0829FF0011124E75EFD4F891750F7CD
:102150001182108212828F5F3396F8CF9091140211
:1021600090FF14C090917B012091030133E0939F75
:10217000F0011124E75EFD4F921710F00C948B10C4
:102180008183608342839F5F3396F6CF0895CF9318
:10219000DF9300D00F92CDB7DEB79091140290FF7D
:1021A0000AC09E012F5F3F4F0E94A40F4B8169819F
:1021B0008A810E94AE100F900F900F90DF91CF9107
:1021C0000895CF93DF93EC01EC81F0E0E250F94FFA
:1021D0004491E4E1F2E0628181810E94C7108C8128
:1021E0008F5F8C83DF91CF910895CF93DF93EC01C4
:1021F000E4E1F2E0438162818C810E94C7108C810E
:102200008F5F8C83DF91CF9108950F931F93CF93AE
:10221000DF9300D00F92CDB7DEB78C0180917801AB
:1022200081110AC09E012F5F3F4F4FEF6FEF0E9459
:10223000A40F8A8180937801F8016481613069F08C
:102240008091780140E0662361F040E0623011F453
:102250004091780180E060E004C06091780140E046
:1022600080E00E94AE10F801848190E0019663E066
:1022700070E00E943E2E84830F900F900F90DF91AC
:10228000CF911F910F9108954F925F926F927F921D
:102290008F929F92AF92BF92CF92DF92EF92FF9276
:1022A0000F931F93CF93DF9300D00F92CDB7DEB77C
:1022B000182FD62E042F722E9091140290FF46C034
:1022C000E92FE695AE2FB0E0A35DBE4F8C918093D1
:1022D00084019E7F923009F04DC09E012F5F3F4FD9
:1022E000812F0E94A40F4B8169818A810E94AE10C8
:1022F00010931502D092160200931702772009F46A
:102300009CC0609114027091150280911602909108
:1023100017020E94C50F8091040280FF17C08091B0
:1023200017021F928F93809116021F928F938091B4
:1023300015021F928F9387E694E09F938F930E94DC
:1023400078060FB6F894DEBF0FBECDBF0F900F908A
:102350000F90DF91CF911F910F91FF90EF90DF9041
:10236000CF90BF90AF909F908F907F906F905F9035
:102370004F900895823019F400911702B9CF86303A
:1023800019F410911502B4CF8930D9F3893109F0CD
:10239000AFCFE9518E2F8170682E8E2F809581707E
:1023A000C82EE695F0E0E250F84FE590F490412C0D
:1023B000FF249CE8A92E94E0B92E609102014616F4
:1023C00018F00E948B1094CF842C912C8E9CC0010D
:1023D0008F9C900D9E9C900D112470E00E942A2EDF
:1023E000512E611028C0560E8091040280FF11C04A
:1023F000FF92EF921F92CF921F925F921F924F9285
:10240000BF92AF920E9478060FB6F894DEBF0FBE5F
:10241000CDBF20917B01820E911C9401220F331FAE
:10242000280D391D275E3D4F402F6D2D852D0E94B3
:10243000A40F4394C2CF561AD7CF8091040280FFD5
:1024400085CF1F920F931F92DF921F921F9380E4FC
:1024500094E073CFE4E1F2E09181282F438162811F
:1024600088E0890F0C94441181E00C942A12E4E175
:10247000F2E09181282F4381628188EF890F0C94CB
:10248000441181E00C943712E4E1F2E0628128E02B
:10249000620F08F46FEF282F438181810C9444115F
:1024A00081E00C944412E4E1F2E0628128E0621BD6
:1024B00008F460E0282F438181810C94441181E06D
:1024C0000C945312E4E1F2E0438128E0420F08F457
:1024D0004FEF282F628181810C94441181E00C948C
:1024E0006212E4E1F2E0438128E0421B08F440E09C
:1024F000282F628181810C94441181E00C94711227
:1025000020E00C944411EF92FF921F93CF93DF933E
:10251000EC0110E0EE24EA94F12C60910201161710
:1025200070F00E948B109A818C8190FF27C08F5F82
:102530008C83DF91CF911F91FF90EF9008952091B0
:102540007B01422F410F5527551FCA019A01220FC7
:10255000331F280F391F275E3D4F70E0C7010E94CF
:102560003E2E962F8C814091170260911602199F82
:10257000800D11240E94A40F1F5FCFCF8150D8CFB0
:10258000BF92CF92DF92EF92FF920F931F93CF9360
:10259000DF93FC0182810FEF80FF01E010E080916A
:1025A00002011817C0F00E948B1080917A0101304F
:1025B00009F04DC0811102C08091020181508093C9
:1025C0007A01DF91CF911F910F91FF90EF90DF90F3
:1025D000CF90BF900895C0917B01C12ED12CCC0D1E
:1025E000DD2DD11DCE01880F991FC80FD91FC75EE1
:1025F000DD4F198218821A8234E0E32EF12CB12CBF
:1026000080917A018B0D87FF03C090910201890FA1
:10261000082E000C990BC816D90691F48091170268
:102620008E9DA0018F9D500D112455954795559570
:1026300047959E0160911602809115020E94A40F99
:10264000B00EF1E0EF1AF108D9F61F5FA8CF90E0C5
:1026500001966091020170E00E943E2EB0CF0F9370
:102660001F93CF93DF9380917B019091030123E02F
:10267000829FF0011124E75EFD4F891740F1C0E011
:10268000D3E060910201C61740F10E948B102091A7
:10269000000180917901820F80937901909101016D
:1026A000920F90930101191654F4082E000C990B07
:1026B000409102014150550B841795071CF021955C
:1026C00020930001DF91CF911F910F910895118206
:1026D000108212828F5F3396D0CF0C2F10E070E003
:1026E000C8010E943E2E20917B01820F482F50E0AE
:1026F00020917901022E000C330B02171307BCF056
:1027000020910101022E000C330B201731077CF0C1
:102710008D9F90011124275E3D4F409117026091DB
:102720001602809115020E94A40FCF5FAACFFA0172
:10273000EE0FFF1FE40FF51FE75EFD4F11821082C1
:102740001282F3CF0F931F93CF93DF938C01FC0181
:102750008481958101968170992795838483C0E057
:10276000D5E580910201C81730F0DF91CF911F911C
:102770000F910C948B1020917B01422F4C0F552709
:10278000551FCA019A01220F331F280F391F275ED8
:102790003D4F8C2F8695F80144815581840F952FEC
:1027A000911D817040911702609116028D9F802DBE
:1027B00011240E94A40FCF5FD4CF0F931F93CF9308
:1027C000DF93EC0110E000E09091020190171106F8
:1027D00009F06CF40E948B108C8190E0019681705E
:1027E00099278C83DF91CF911F910F9108952091AC
:1027F0007B01A801420F511D9A01220F331F240FA4
:10280000351F275E3D4F4C81609116028091150265
:1028100096959017110651F04CF0442349F04091E1
:1028200017020E94A40F0F5F1F4FCECF4423B9F3AE
:1028300040E0F7CF60911402669570E04BE050E005
:1028400085E091E00E94942E892B19F481E0809319
:1028500085010E94A42490937E0180937D01809144
:10286000040280FF08C087E294E09F938F930E9448
:1028700078060F900F9008951092850180910402C0
:1028800080FF08C08EE094E09F938F930E947806AB
:102890000F900F9008959091140290FF54C0917082
:1028A00081113BC09260909314026623E9F160911C
:1028B00014027091150280911602909117020E94E5
:1028C000C50F8091040280FF0FC08091140286958D
:1028D0001F928F9387E795E09F938F930E947806CE
:1028E0000F900F900F900F9060911402669570E01A
:1028F0004BE050E085E091E00E94942E892B01F19D
:102900000E943C1481E08093800140911702609105
:102910001602809115020C948012853210F0986492
:10292000C2CF880F982BBFCF8091040280FFDCCFED
:102930008091140286951F928F9389E595E0CCCF04
:102940000E941A14DFCF0895682F90911402969573
:1029500081E0890F853208F081E00C944B1481E00E
:102960000C94A414682F9091140296958FEF890F00
:1029700009F484E20C944B1481E00C94B21461E0ED
:102980000C944B1480911402816080931402809106
:10299000040280FF0DC01F9281E08F938BEE94E0C4
:1029A0009F938F930E9478060F900F900F900F9037
:1029B0008091140286950C94BF1460E00C944B1423
:1029C00080918301811163C08091040281608093B2
:1029D000040280FF14C08AE196E09F938F930E94C7
:1029E0007806809104020F900F9080FF08C084E069
:1029F00096E09F938F930E9478060F900F900E940D
:102A00002E23811110C08091040280FF08C08CED3C
:102A100095E09F938F930E9478060F900F900E94ED
:102A2000D4230E94D70F0E94C10F609314027093A9
:102A3000150280931602909317026E7FC1F4809165
:102A4000040280FF08C083E995E09F938F930E9462
:102A500078060F900F900E94D70F0E94C10F6093CD
:102A600014027093150280931602909317020E942D
:102A7000B20F0E94E60F109285018091140280FF30
:102A800003C086950E94DD1481E080938301089540
:102A9000809114028E7F80931402609114027091D1
:102AA000150280911602909117020E94C50F809125
:102AB000040280FF0FC08091140281701F928F93D7
:102AC00083EB94E09F938F930E9478060F900F9072
:102AD0000F900F900E943C142FEF80E792E021505E
:102AE00080409040E1F700C000000C948B10809172
:102AF000040280FF10C080911402809581701F92A3
:102B00008F9382E295E09F938F930E9478060F90B7
:102B10000F900F900F908091140280FD0C94481537
:102B20000C94C2140F931F93CF93DF938091850170
:102B3000882309F48DC080918401E0911402E69508
:102B4000E81BE0937F018230C9F5F0E0E650F94FD1
:102B5000E491CE2FD0E001EE10E180918001882336
:102B600089F0109280010E94A4249E012095309546
:102B7000820F931F90937E0180937D0110928201BA
:102B80001092810180917D0190917E010E94B0247C
:102B90008C179D0708F45CC0E0917D01F0917E01E7
:102BA000CE0FDF1FD0937E01C0937D018DE791E0B2
:102BB000F801DF91CF911F910F910994863049F46C
:102BC000F0E0E950F94FE491CE2FD0E005EF10E1AD
:102BD000C4CF893051F4E695F0E0EC50F94FE49120
:102BE000CE2FD0E003E812E1B8CF8F3051F4E69554
:102BF000F0E0EF50F94FE491CE2FD0E000EC12E17D
:102C0000ACCF853149F4F0E0E251F94FE491CE2F99
:102C1000D0E00FE213E1A1CFC8EED3E002EA13E166
:102C2000883109F49ACF833239F4ECEEF6E0C5919D
:102C3000D49105E011E191CFC4EFD1E00DED13E1A6
:102C4000843209F48ACFC0EDD7E003EA1FE085CFD4
:102C5000DF91CF911F910F9108953EB1242F2095C0
:102C600023233EB1432B3FB7F894680F791F861793
:102C7000970711F43FBF0895FC015191CF01E8E09F
:102C80004EB9000000C057FF2EB9550F000000C01C
:102C900000C000C02EB900C0EA9591F7E8CF2DB171
:102CA000242B2DB99B01220F331F620F731F0E942B
:102CB0002D1687EC90E00197F1F700C00000089511
:102CC00044E00C944F160F931F93CF93DF93C62FBE
:102CD000D42F022FFC0182818823C9F060938801E0
:102CE0000E94A424909387018093860180E28C0F38
:102CF000883008F050C0C77081E001C0880FCA95C5
:102D0000EAF7DF91CF911F910F910C94351A109132
:102D10008801161335C080918601909187010E9429
:102D2000B024883C910560F5C0E2CD0F1D17B9F0C5
:102D300080E2810F883040F4177081E001C0880F75
:102D40001A95EAF70E943C1AC83048F481E09D2F9A
:102D5000977001C0880F9A95EAF70E94351A802F64
:102D60000E94221AC830B8F4D77081E001C0880FE1
:102D7000DA95EAF7DF91CF911F910F910C943C1AED
:102D800080E28C0F883038F4C77081E001C0880F72
:102D9000CA95EAF7EFCFDF91CF911F910F91089578
:102DA0009C01CB01203F4CE5340731F190F4283DE4
:102DB000FCE53F07E9F0293D4CE5340769F1273D83
:102DC0003C4579F426E241EE61EE0E94631680E014
:102DD0000895223FFCE53F07B9F090F0233F3C45C2
:102DE000B9F0FC0182818823D1F010928801089506
:102DF00027E245EE65EEE9CF26E241EE60EEE5CF53
:102E000027E245EE64EEE1CF26E241EE62EEDDCF51
:102E100027E245EE66EED9CF28E241E0EBCF81E034
:102E2000089590938E0180938D010895E0918D0116
:102E3000F0918E01309721F00190F081E02D0994FE
:102E400080E00895EF92FF920F931F93CF93DF934B
:102E50008C01E0918D01F0918E013097C1F10280DB
:102E6000F381E02D09958091040282FF30C080FF3C
:102E700004C08BE099E00E94DF05D0E0C0E085E06F
:102E8000E82E89E0F82E8091040280FF0EC0F80140
:102E9000EC0FFD1F80811F928F93FF92EF920E9493
:102EA00078060F900F900F900F902196C830D105A3
:102EB00051F78091040280FF0AC083E099E0DF911E
:102EC000CF911F910F91FF90EF900C94DF05DF9150
:102ED000CF911F910F91FF90EF90089520918B015A
:102EE00030918C012817390771F090938C018093F1
:102EF0008B01E0918D01F0918E01309721F00680D9
:102F0000F781E02D099408952091890130918A017B
:102F10002817390771F090938A0180938901E09115
:102F20008D01F0918E01309721F00084F185E02D24
:102F30000994089585B7806885BF85B7806885BF87
:102F40000895089508950C94A11708950C94A51759
:102F50000E949A170E94A2170C94A31781E008956B
:102F60000E949B240E94D50D0E9422250E943A2592
:102F70000E94E0140C94A617CF93C82F80910402EE
:102F800082FF1EC080FF1CC084E299E00E94DF0522
:102F90008091040280FF14C01F92CF938FE199E0CB
:102FA0009F938F930E947806809104020F900F9058
:102FB0000F900F9080FF04C08DE199E00E94DF0523
:102FC0008C2FCF910C94E3075F926F927F928F9238
:102FD0009F92AF92BF92CF92DF92EF92FF920F93A8
:102FE0001F93CF93DF93CDB7DEB72A970FB6F89430
:102FF000DEBF0FBECDBF0E94360E0E94AE178823E3
:1030000009F478C090E9A92E91E0B92E10E000E013
:1030100088248394912C502E802F0E94850D7C0152
:10302000F501C190D1905F01C816D90609F45CC0C2
:103030008091040281FD0E948E0D90E080E0CE24FC
:10304000DF243401082E02C0660C771C0A94E2F7D4
:10305000960126213721232B09F441C08E835F82FC
:10306000E620F72081E0EF2809F480E088870E94BD
:10307000A4248160782F9A8789874E815F81688533
:103080008A850E94A118000F111FF801E057FE4F1A
:103090008081918168267926718260820E9416174C
:1030A00090918F018917B9F10E94161780938F01B3
:1030B0002A960FB6F894DEBF0FBECDBFDF91CF9139
:1030C0001F910F91FF90EF90DF90CF90BF90AF9046
:1030D0009F908F907F906F905F900C94BC1701969B
:1030E0008C30910509F0ADCF0F5F1F4F04301105F3
:1030F00009F091CF8FEF89838A831B820E94A424D9
:103100008160782F9D838C8349815A816B818D8169
:103110000E94A118C3CF2A960FB6F894DEBF0FBE47
:10312000CDBFDF91CF911F910F91FF90EF90DF9076
:10313000CF90BF90AF909F908F907F906F905F9057
:103140000895CF93DF93CDB7DEB72B970FB6F894E2
:10315000DEBF0FBECDBF4F83588769877A878B87C5
:103160001E821D8285E0FE013796DE0111960190D8
:103170000D928A95E1F749815A816B817C818D811D
:103180009E812B960FB6F894DEBF0FBECDBFDF91A8
:10319000CF910C944C1FFC01808191810C940222F0
:1031A000882309F4FFC08238B9F40E94161781FD04
:1031B000F9C089E30E9430220E94A1222FEF81EE04
:1031C00094E0215080409040E1F700C0000089E386
:1031D0000E9437220C94A1228338A1F40E94161772
:1031E00080FDE0C083E50E9430220E94A1222FEFE3
:1031F00081EE94E0215080409040E1F700C0000053
:1032000083E5E6CF8438A1F40E94161782FDCAC078
:1032100087E40E9430220E94A1222FEF81EE94E0E9
:10322000215080409040E1F700C0000087E4D0CFFB
:103230009CEF980F913A18F40E943022CBCF90E285
:10324000980F983050F4877091E001C0990F8A95DB
:10325000EAF7892F0E945822BDCF9BE5980F933043
:1032600070F4853A31F0863A39F083E890E00C94B6
:103270006E1781E890E0FBCF82E890E0F8CF98E508
:10328000980F973108F08EC0883A09F446C0893A01
:1032900009F446C08A3A09F446C08B3A09F446C09C
:1032A0008C3A09F446C08B3B09F446C08C3B09F4C8
:1032B00046C08D3A09F446C0803B09F446C08E3AB8
:1032C00009F446C08F3A09F446C0813B09F446C070
:1032D000823B09F446C0833B09F446C0843B09F4B1
:1032E00046C0853B09F446C0863B09F446C0873B8F
:1032F00009F446C0883B09F446C0893B09F446C03E
:103300008D3B09F446C08E3B09F446C08A3B09F464
:1033100046C090E080E00C94841782EE90E0FBCFF2
:1033200089EE90E0F8CF8AEE90E0F5CF85EB90E063
:10333000F2CF86EB90E0EFCF83EB90E0ECCF84EB25
:1033400090E0E9CF87EB90E0E6CF8CEC90E0E3CF24
:103350008DEC90E0E0CF83E891E0DDCF8AE891E06A
:10336000DACF82E991E0D7CF84E991E0D4CF81E24E
:1033700092E0D1CF83E292E0CECF84E292E0CBCF55
:1033800085E292E0C8CF86E292E0C5CF87E292E084
:10339000C2CF8FE690E0BFCF80E790E0BCCF8AE25B
:1033A00092E0B9CF0895882309F44BC0823871F4B4
:1033B0000E94161781FF45C089E30E9430220E94B7
:1033C000A12289E30E9437220C94A122833859F468
:1033D0000E94161780FF35C083E50E9430220E94AC
:1033E000A12283E5EFCF843859F40E94161782FF9B
:1033F00028C087E40E9430220E94A12287E4E2CF05
:103400009CEF980F913AF0F290E2980F983050F4B8
:10341000877091E001C0990F8A95EAF7892F0E9481
:103420005E22D2CF9BE5980F933020F490E080E0AD
:103430000C946E17885A873120F490E080E00C9449
:1034400084170895CF93C82F0E94D018C93349F428
:103450002FEF87EE93E0215080409040E1F700C0CD
:1034600000008C2FCF910C94D319882321F00E9457
:1034700058220C94A1220895882321F00E945E22F4
:103480000C94A1220895BF92CF92DF92EF92FF9207
:103490000F931F93CF93DF936C01D62FC72FFC019F
:1034A000058102950F70128111110E9475220E94F0
:1034B0004E22E82E882371F01123B1F080E28D0FA7
:1034C000883090F082E00E94EC220E944E2291E02F
:1034D000E82EE926BC2EB2949FE0B922EB2DF0E055
:1034E000E551F14D0C94742EE12CF4CF0C2F0F709C
:1034F000C07F11F00295007F1123A9F0002359F03D
:1035000080E28D0F883010F0D11109C0802F0E9409
:1035100058220E94A1228D2F0E94D01814C0802F03
:103520000E946822F6CF8D2F0E94D319002359F0F4
:1035300080E28D0F883010F0D1112CC0802F0E94B6
:103540005E220E94A1222B2D2850330B24303105FE
:1035500020F40E9416170E94E307EE2009F4B6C17A
:103560000E944A2280FDB2C1F60112820E944422CA
:103570000E94D020C6010E94701C0E944422DF914C
:10358000CF911F910F91FF90EF90DF90CF90BF9060
:103590000C94F120802F0E946E22D3CFFC2FFF705D
:1035A000FF2EC07FC03219F0F29480EFF822DD23A5
:1035B00069F0D13049F1112391F1002351F1F60165
:1035C000858180FFA8CF8F70858323C0112381F070
:1035D000011106C00E9488228F290E94351AB3CF9C
:1035E0000130C1F70E9488228F290E948E22ABCF22
:1035F000011106C00E9497228F2D0E943C1AA3CF72
:10360000013009F4A0CFF6CF112329F0063008F0DD
:103610009ACF8F2DE2CF053008F095CFEDCF002364
:1036200059F3D93349F4FFEF27EE33E0F15020404E
:103630003040E1F700C000008D2F0E94D31983CFE6
:103640008C2F86958695837069F0813009F07BCF49
:103650008D2F9C2F9370111102C090E080E00E948A
:10366000841771CF8D2F9C2F9370111102C090E0A1
:1036700080E00E946E1767CF8C2F837009F041C0E5
:10368000111161CF4D2F429546954770440F440F5D
:103690000D2F0F7010E030E020E0042E04C0000F6A
:1036A000111F221F331F0A94D2F760E070E0CB0194
:1036B000D4FF0FC06FE070E080E090E004C0660FC0
:1036C000771F881F991F4A95D2F76095709580954E
:1036D0009095C695C695C370602B712B822B932B4A
:1036E000C23049F058F4C13019F00E9482202BCF2B
:1036F0000E94702028CF0E94942025CF0E946E2027
:1037000022CF8695112311F08C2F8170882309F424
:103710001ACF4D2F429546954770440F440F0D2FF9
:103720000F7010E030E020E0042E04C0000F111FE5
:10373000221F331F0A94D2F760E070E0CB01D4FF60
:103740000FC06FE070E080E090E004C0660F771F6C
:10375000881F991F4A95D2F760957095809590952E
:10376000C695C695C370602B712B822B932BC230EC
:1037700049F058F4C13019F00E944721E4CE0E946C
:103780003521E1CE0E945921DECE0E94AA20DBCE57
:10379000CF70112329F08C2F0E94D0208D2F1DCFA8
:1037A0008D2F0E943C1A8C2F0E94F120CCCED23F4C
:1037B00089F160F4D03FC9F0D13F29F1112309F418
:1037C00042C00111A8CE8C2F8F7121C0D33F39F197
:1037D000D43FA1F7112369F1CF718C2F0E94D02023
:1037E00063E08C2F0E94D722AECE112341F005302A
:1037F00008F0A9CE8C2F8F710E941421A4CE063020
:1038000008F0A1CEF7CF8C2F8F71112369F20E949F
:10381000D02099CE8C2F8F711123C9F3C5CF1123DE
:1038200029F08C2F8F710E94BB208DCE0E94B62074
:103830008ACE81E00E94EC22023008F484CE82E03D
:103840000E94EC2280CE002359F0D93309F0F4CE47
:103850008FEF97EEE3E081509040E040E1F7EACE51
:103860008C2F8F71A1CF4C2F4F706D2FC6010E94EE
:10387000A10A0E94E61F67CE111165CECF70C2303B
:10388000B1F040F4CC2381F0C13009F05CCE0E944D
:10389000892559CEC43089F068F080E0C53009F040
:1038A00052CE0E9450264FCE0E9456254CCE0E94EA
:1038B000F62549CE0E94122646CE84E0F2CF4C2F48
:1038C0004F706D2FC6010E94A40A3DCEDF91CF91AB
:1038D0001F910F91FF90EF90DF90CF90BF900895D0
:1038E0000F931F93CF93DF93EC018B819C81892BE6
:1038F00029F08881998189238F3F29F4DF91CF9125
:103900001F910F910895CE010E94F5078823B1F30E
:10391000688179818A810E940C228C010E946B212E
:103920000E946D20B801CE01DF91CF911F910F91C0
:103930000C94431A0E9475220E9485220E94A122A3
:1039400090E080E00E946E1790E080E00C94841775
:103950000E943E220C949A1C0E9465220C94A81C82
:10396000E92FE295EF70E250EE3070F4F0E0E550B0
:10397000F14D0C94742E803F19F020F4883E20F411
:1039800081E00895843FE1F380E00895883EC0F32C
:10399000813FD1F7F5CF93FB882780F908950E94E6
:1039A00002220C94B01CCF93DF9300D000D00F9272
:1039B000CDB7DEB70F900F900F900F900F90DF9163
:1039C000CF910895CF93DF9300D000D000D0CDB732
:1039D000DEB726960FB6F894DEBF0FBECDBFDF91DF
:1039E000CF9108951F93CF93DF93C091990116E073
:1039F00080919A018C1304C0DF91CF911F9108959B
:103A0000D0E01C9FF0011D9FF00D1124E556FE4FE4
:103A10004081518162817381848195810E94E21C81
:103A20002196C770E5CF4091CB015091CC016091B8
:103A3000CD017091CE018091CF019091D0010C9475
:103A4000E21C1F93CF93DF938091D001807FC1F45C
:103A50008091CD018823A1F080919901C0919A01B4
:103A60006091CB017091CC014091CE015091CF017A
:103A7000D62FD723DA01A095B09516E0C81304C05D
:103A8000DF91CF911F91089590E04115510511F0FC
:103A9000DF3F31F401968770F1CF2A0F3B1F17C02B
:103AA000189FF001199FF00D1124E556FE4F21815A
:103AB0002713F0CF20812613EDCF22812111EACFE9
:103AC000238134812417350740F3241B350B283C10
:103AD000310500F72091D0012F7020612093D00193
:103AE00026E0289FF001299FF00D1124E056FE4F9B
:103AF00080818F70806180838BEC91E00E94701CCC
:103B0000DF91CF911F910C94F21CBF92CF92DF9264
:103B1000EF92FF920F931F93CF93DF93CDB7DEB752
:103B200061970FB6F894DEBF0FBECDBF8C0185E064
:103B3000F801DE011D9601900D928A95E1F7D801FA
:103B40004C9111965C9111971296EC90129780917E
:103B5000CE019091CF01009709F47FC12091CB0154
:103B60003091CC01622F63236F3F09F476C1139625
:103B7000CD90DC90B090CD01BB2009F411C1C816E6
:103B8000D906D0F1F601E81BF90BCF01FF24F3941D
:103B9000883C910508F0F12C8091D001982F907FFE
:103BA000FF2009F4B8C091117FC0FE2C351329C045
:103BB000241327C0E11025C08F7080618093D0014D
:103BC0000E94131D8BEC91E00E94701C8091D0012B
:103BD000D80115968C938F2D61960FB6F894DEBFA1
:103BE0000FBECDBFDF91CF911F910F91FF90EF904E
:103BF000DF90CF90BF900895809590958C0D9D1D7E
:103C0000C5CFCD2829F0852F84238F3F09F041C1EE
:103C100080E0B82FB170DB2E80FF3CC0809199010D
:103C200020919A0136E0821315C04D875E878D85FD
:103C30009E850E940222292F22952F702230F0F0BB
:103C4000243018F59F70F1F0F8019581907FD1F440
:103C5000D12C1EC090E0389FF001399FF00D112447
:103C6000E556FE4F6181651306C06081641303C091
:103C70006281E6120FC001968770D5CF9F7011F058
:103C8000882331F3805E883018F3C8010E94701CCD
:103C9000FD2CA1CFEE2009F49ECF8091D001816050
:103CA0008093D001F12C97CF351306C0241304C0A4
:103CB000D801EE2009F49AC04D875E878D859E85D8
:103CC0000E94CF1C882319F1EE2009F18091D001C8
:103CD000803270F02091CB013091CC0138872F8356
:103CE0001986DB86CA868C87CE0107960E94701CD7
:103CF00086E0F801ABECB1E001900D928A95E1F716
:103D00000E94211D0E94131DFF24F39464CFC8015B
:103D10000E94701CF9CF911113C07C2DD98AC88ADA
:103D20006E2D89890E94D31C8BEC91E00E94701C3F
:103D300086E0EBECF1E0DF011D928A95E9F763C0C4
:103D4000351312C0241310C0E1100EC0F801858392
:103D5000C8010E94701CEBECF1E086E0DF011D92CF
:103D60008A95E9F7FB2C37CF4D875E878D859E8539
:103D70000E94CF1C882359F2EE2049F28091D00195
:103D8000803208F4B5CF2091CB013091CC013A8339
:103D900029831B82DD82CC828E83CE010196A6CF41
:103DA000C816D90698F1F601E81BF90BCF01F12CE2
:103DB000883C910508F049C0FE2CEE2009F4A7CFFD
:103DC000351332C0241330C08091D00180FD23C050
:103DD000982F907F01F1D80115968C931597903FFD
:103DE00039F0982F907F905F8F70892B15968C9368
:103DF000C8010E94701C86E0F801ABECB1E00190B4
:103E00000D928A95E1F70E94131DE5CE809590955D
:103E10008C0D9D1DCCCF86E0F801ABECB1E001909C
:103E20000D928A95E1F7D7CE4D875E878D859E8569
:103E30000E94CF1C81115CCF8091D0018160809362
:103E4000D001C8010E94701CC6CE7C2DD98AC88AB8
:103E50006E2D89890E94D31C6BCFEE2009F457CFB9
:103E60004D875E878D859E850E94CF1CF82E882306
:103E700009F44DCF86E0F801ABECB1E001900D9272
:103E80008A95E1F78BEC91E00E94CB180E94211DEE
:103E9000BACF81E08E25BDCE1F93CF93DF93CDB7F0
:103EA000DEB72C970FB6F894DEBF0FBECDBF4F83A1
:103EB000588769877A878B879C87CE0107960E94EF
:103EC000851D882369F08A859B85892B39F04F8170
:103ED0005885842F85238F3F09F071C016E05FC09D
:103EE00086E0FE013796DE01119601900D928A95CB
:103EF000E1F78A859B85892B89F388859F818923B2
:103F00008F3F61F320919A0130E0C90101968770DB
:103F10009927409199014817190671F40E94AC1C29
:103F200010929A011092990186E0EBECF1E0DF012A
:103F30001D928A95E9F7D2CF96E0929FD001939F88
:103F4000B00D1124A556BE4FFE01319601900D9281
:103F50009A95E1F780939A010E94F21CBFCF819F4E
:103F6000C001112485569E4F0E94851D8823E9F0CB
:103F7000E09199011E9FF0011124E556FE4F40810A
:103F8000518162817381848195810E94E21C8091BC
:103F9000990190E00196877099278093990180910B
:103FA000990190919A018913DACF2C960FB6F89463
:103FB000DEBF0FBECDBFDF91CF911F910895698500
:103FC0007A858B859C850E94E21C88CFEF92FF92B8
:103FD0000F931F93CF93DF938C01892B81F0F12CEA
:103FE000EE24E394E8012196F8018491843770F47B
:103FF000843008F05FC08130B1F08230A1F1DF91F0
:10400000CF911F910F91FF90EF900895853709F49C
:104010004CC008F43DC09CE7980F903780F78F772D
:104020000E94D31949C00E5F1F4FFE01849190E298
:10403000980F983060F48770FE2D01C0FF0F8A95AD
:10404000EAF78F2F0E9478220E94A12202C00E94CC
:10405000D0188F2D815030F2EFE9FFE03197F1F762
:1040600000C00000F7CF0E5F1F4FFE01849190E269
:10407000980F983050F48770FE2D01C0FF0F8A957D
:10408000EAF78F2F0E947E22DFCF0E94D319E1CF63
:104090000E5F1F4FFE01C491C150D8F28FE99FE01F
:1040A0000197F1F700C00000F7CF0E5F1F4FFE0130
:1040B000F490CFCF0E94D0188E01CBCF08950C94EE
:1040C0005E200E945F206093F3017093F40180935F
:1040D000F5019093F6010C949A1C08950C946120BC
:1040E0000F931F930091F3011091F4012091F501BA
:1040F0003091F601602B712B822B932B1F910F9126
:104100000C9461200F931F930091F3011091F4011F
:104110002091F5013091F6016023712382239323CE
:104120001F910F910C9461200F931F930091F30145
:104130001091F4012091F5013091F601602771276B
:10414000822793271F910F910C9461200C945E207D
:104150000C94A6200E94A8206093EF017093F001B8
:104160008093F1019093F2010C949A1C60E070E04E
:10417000CB010C94AA200F931F9341E050E060E024
:1041800070E08A019B0104C0000F111F221F331F22
:104190008A95D2F7C901B8011F910F910C94AA20FA
:1041A0000F931F9341E050E060E070E004C0440FC3
:1041B000551F661F771F8A95D2F78091EF01909166
:1041C000F001A091F101B091F2018A019B01082B4D
:1041D000192B2A2B3B2BC901B8011F910F910C946D
:1041E000AA200F931F9341E050E060E070E004C00C
:1041F000440F551F661F771F8A95D2F7CB01BA016E
:1042000060957095809590950091EF011091F00167
:104210002091F1013091F2016023712382239323D5
:104220001F910F910C94AA200F931F9341E050E02F
:1042300060E070E004C0440F551F661F771F8A9529
:10424000D2F78091EF019091F001A091F101B0912E
:10425000F2018A019B01082719272A273B27C90158
:10426000B8011F910F910C94AA200F931F930091F6
:10427000EF011091F0012091F1013091F201602BDA
:10428000712B822B932B1F910F910C94AA200F93CB
:104290001F930091EF011091F0012091F1013091F5
:1042A000F20160237123822393231F910F910C94B9
:1042B000AA200F931F930091EF011091F00120911C
:1042C000F1013091F20160277127822793271F9116
:1042D0000F910C94AA2008952CE0929F800D112438
:1042E000982F977041E001C0440F9A95EAF78695A0
:1042F0008695869595E0899FF0011124EF52FE4F37
:1043000090E080E070E05191DF0111979B01082E51
:1043100002C0369527950A94E2F72170219525274A
:10432000242325272C9301968530910561F7089564
:104330002CE0929F800D1124982F9770869586957A
:10434000869525E0829FF0011124EF52FE4F50E048
:1043500040E080E0219130E0092E02C0369527959B
:104360000A94E2F721703327042E01C0220F0A9429
:10437000EAF7822B4F5F5F4F4530510559F708959B
:10438000BF92CF92DF92EF92FF920F931F93CF9342
:10439000DF938C01C090EF01D090F001E090F1012B
:1043A000F090F2018091F3019091F401A091F50158
:1043B000B091F601C82AD92AEA2AFB2ACFE1D0E037
:1043C000BC2ED701C6010C2E04C0B695A7959795B3
:1043D00087950A94D2F780FD0EC0219788F7B12CFB
:1043E0008B2DDF91CF911F910F91FF90EF90DF9078
:1043F000CF90BF900895B8018C2F0E94C10A0197F9
:1044000061F3EECFCF93DF93EC010E94C021BE0198
:10441000DF91CF910C94C10A1F93CF93DF93EB01EF
:1044200090919801992331F0CB01DF91CF911F91A9
:104430000C940222882379F0CB010E94C021182F0E
:10444000682FCE010E946C21BE01812FDF91CF9198
:104450001F910C94C10ACB010E949821182FF4CF10
:10446000682F80911001909111010C940F24682FF6
:1044700080911001909111010C94112480911001F0
:10448000909111010C9413248091F70185958595E5
:10449000859508958091F701877008959091F701AF
:1044A000977081E009F480E00895809103020895F7
:1044B00090910302892B8093030208958095909137
:1044C0000302982390930302089510920302089523
:1044D00090910202892B8093020208958095909119
:1044E0000202982390930202089510920202089506
:1044F00090910102892B80930102089580959091FB
:1045000001029823909301020895109201020895E8
:104510008091F801089508950C948B229091F801F0
:10452000981721F08093F8010C948C2208958091C3
:10453000F801882329F01092F80180E00C948C2275
:104540000895E0911001F0911101809103028083A0
:10455000E0911001F0911101808190910202892B6C
:104560008083E0911001F09111018081909101020E
:10457000892B80839091F801992381F0E0911001BB
:10458000F09111018081892B80838091100190919D
:1045900011010E94D62381110E949722809110015F
:1045A000909111010C94221708950C94D42298E054
:1045B000899F90011124622B6093F7010E94D02003
:1045C0008091F7018595859585950C94D52210925B
:1045D000F70180E00C94D5229091F7018095892312
:1045E0008093F701282F277071F4282F082E000CD4
:1045F000330B9217130639F08595859585950E94A2
:10460000F1200C94E7220895909363018093620156
:104610000895829590E09C01220F331F220F331FD3
:104620002C7C95958795959587958373282B30E0FD
:10463000C901880F991F8A7A359527952575822B90
:104640000895CF93DF93D92F0E940923C82F8D2F70
:104650000E9409239C2FDF91CF91089590E080E084
:104660000E94AF2E21E08D3E9E4F09F020E0822F68
:10467000089582E090E00C94A12E83E090E00C94E9
:10468000A12ECF9384E090E00E94A12EC82F81E25A
:1046900090E00E94A12E982F8C2FCF910895CF9358
:1046A000C92F682F84E090E00E94B52E6C2F81E224
:1046B00090E0CF910C94B52E86E090E00C94A12E62
:1046C000682F86E090E00C94B52EAB01BC018FE022
:1046D00090E00C94C72EAB01BC0183E190E00C94F8
:1046E000C72E60E070E0CB010C946B2360E070E0BB
:1046F000CB010E9465230C9471236DEE7EEF90E058
:1047000080E00E94D32E60E082E090E00E94B52E0F
:1047100060E083E090E00E94B52E1092F3011092C9
:10472000F4011092F5011092F60160E084E090E04F
:104730000E94B52E60E081E290E00E94B52E60E01C
:1047400085E090E00E94B52E60E086E090E00E9457
:10475000B52E6FEF87E090E00E94B52E40E050E06C
:10476000BA0188E090E00E94C72E60E08DE090E002
:104770000E94B52E40E050E0BA0188E190E00E942E
:10478000C72E60E087E190E00E94B52E40E050E047
:10479000BA018CE190E00E94C72E60E080E290E0D8
:1047A0000E94B52E0C9476230C947D239C012E5FE1
:1047B0003F4FAC01485F5F4F80E02417350709F495
:1047C0000895F90191919F019923B9F38F5FF5CF76
:1047D0009C01FC0132969FEF80E04191461751F019
:1047E0009F3F19F4411101C0982F8F5F8630A9F7C0
:1047F0009F3F09F40895290F311D97FD3A95F9015E
:1048000062830895FC01329608962191261303C015
:10481000DF0111971C92E817F907B9F708950C9476
:10482000E8230C940224029626E0FC0111922A95BA
:10483000E9F70895089508950C941B240E941C2400
:1048400080914E02843061F11092050288E190E07F
:1048500020E40FB6F894A895809360000FBE2093D3
:10486000600080E00E946C0780E00E94E3070E94E5
:104870001C2483B7817F846083BF83B7816083BF3B
:104880007894889583B78E7F83BF0FB6F894A895E8
:1048900080916000886180936000109260000FBE7C
:1048A00008950895CF930E941A240E94360E0E9404
:1048B0005124C0E08C2F0E94850D892B31F4CF5FED
:1048C000C430C1F780E0CF91089581E0FCCF089516
:1048D0000C9467240E94AC1C0E943A250E94161773
:1048E0000E94E3070C9468241F921FB61F921124A4
:1048F0008F939F93AF93BF9380910502811113C053
:104900008091430290914402A0914502B0914602E9
:104910004196A11DB11D8093430290934402A09340
:104920004502B0934602BF91AF919F918F911F9026
:104930001FBE1F90189582E084BD93E095BD9AEF4D
:1049400097BD80936E0008952FB7F894809143022D
:1049500090914402A0914502B09146022FBF089564
:10496000CF92DF92EF92FF920F931F932FB7F8949D
:104970004091430250914402609145027091460279
:104980002FBF6A017B01EE24FF248C0130E020E080
:10499000C016D106E206F30650F0481B590BCA01B7
:1049A0001F910F91FF90EF90DF90CF9008954150AD
:1049B0005109F3CF78941F921FB61F9211248F9341
:1049C0009F93AF93BF938091430290914402A09133
:1049D0004502B09146020196A11DB11D809343028C
:1049E00090934402A0934502B0934602BF91AF91C9
:1049F0009F918F911F901FBE1F90189581E080930B
:104A0000E00080E28093D8001092C9008FE19EE41C
:104A10000197F1F700C0000087E090EBDC01809384
:104A2000570290935802A0935902B0935A0288E11A
:104A30009CE00FB6F894A895809360000FBE909309
:104A40006000FFCF0E942E23811102C00E94D42358
:104A50000E943923809304020E94412390934802CC
:104A6000809347020E943D23682F70E090E080E031
:104A70000C946E200E942E23811102C00E94D42328
:104A80000E945C2380934902883220F08770806204
:104A90008093490290914902892F817090FF04C050
:104AA000892F8695869586950C946C07809149028E
:104AB000982F969596959695943040F49F5F990F10
:104AC000990F990F8770892B809349028091490231
:104AD0008160809349020E9460238091040280FFDC
:104AE00011C0809149028695869586951F928F9375
:104AF0008EE999E09F938F930E9478060F900F9014
:104B00000F900F90809149028695869586950C941A
:104B10006C0780914902982F987F79F08850809394
:104B20004902887F91E009F490E08091490290FB6E
:104B300080F9809349020E9460238091040280FFE3
:104B400011C0809149028695869586951F928F9314
:104B500086E899E09F938F930E9478060F900F90BC
:104B60000F900F90809149028695869586950C94BA
:104B70006C078091490280FD1FC0816080934902CB
:104B8000813019F489E080934902809149020E94A2
:104B900060238091040280FF08C08EE599E09F9316
:104BA0008F930E9478060F900F908091490286950E
:104BB000869586950C946C0708958091490280FF34
:104BC00014C08E7F809349020E946023809104026A
:104BD00080FF08C08BE499E09F938F930E94780632
:104BE0000F900F9080E00C946C070895CF93C091C4
:104BF0004902C1708091040280FF0CC01F92CF93C4
:104C000080E799E09F938F930E9478060F900F9012
:104C10000F900F90CC2319F0CF910C94DD25CF91FC
:104C20000C94B92590914902892F86958695869591
:104C30008F5F8F719770853080F5880F880F880F90
:104C4000892B8093490280914902887F91E009F481
:104C500090E08091490290FB80F9809349020E9484
:104C600060238091040280FF11C0809149028695E3
:104C7000869586951F928F9387E399E09F938F93F4
:104C80000E9478060F900F900F900F90809149022C
:104C90008695869586950C946C0790934902D3CFA0
:104CA000853008F084E0982F990F990F990F809123
:104CB00049028770892B80934902887F91E009F42B
:104CC00090E08091490290FB80F9809349020E9414
:104CD0006023809149028695869586950C946C0791
:104CE00080911102089508959FB7F89410920802D8
:104CF0009FBF90914E02943009F048C02091E90086
:104D00002F703091EC00932F917030FD90E8922B32
:104D100023E02093E9002091EB0020FF34C0209194
:104D2000EE0027FF30C020910602222321F02091BF
:104D3000E80025FF28C01092060226E03091E80026
:104D400035FF14C08093F1008091E80085FD27C0F5
:104D50008091E80080FFFCCF8091E8008E778093FF
:104D6000E8009F709093E90080E0089530914E0232
:104D7000343049F43091EB0035FD05C0215041F449
:104D800081E0809306029F709093E9008FEF089571
:104D9000EFE9FFE03197F1F700C00000CFCF8FB708
:104DA000F89421E0209308028FBFDBCF0F931F936D
:104DB000CF93DF9300D00F92CDB7DEB78C010E9466
:104DC0006129823011F0843021F584E089831B83CE
:104DD0000A8382E08093E9008FEF9091E800815090
:104DE00095FD06C095ED9A95F1F700008111F5CF7C
:104DF0008091E80085FF0DC050E040E063E070E086
:104E0000CE0101960E947E298091E8008E778093E2
:104E1000E8000F900F900F90DF91CF911F910F91AD
:104E20000895CF93DF9300D00F92CDB7DEB72091D6
:104E30004E02243031F523E02983805891099B8369
:104E40008A8382E08093E9008FEF9091E80081509F
:104E500095FD06C095ED9A95F1F700008111F5CF0B
:104E60008091E80085FF0DC050E040E063E070E015
:104E7000CE0101960E947E298091E8008E77809372
:104E8000E8000F900F900F90DF91CF910895CF938E
:104E9000DF93EC010E946129823011F0843039F5F2
:104EA00081E08093E9008FEF9091E800815095FDBB
:104EB00006C095ED9A95F1F700008111F5CF80912C
:104EC000E80085FF14C050E040E068E070E0CE01EB
:104ED0000E947E298091E8008E778093E80088E028
:104EE000FE01A9E0B2E001900D928A95E1F7DF9111
:104EF000CF9108958BED99E00E94DF0580914D02DE
:104F0000811109C00E940E2B0E946B2B8091E20040
:104F100084608093E200089587ED99E00E94DF05A8
:104F200010924D02089583ED99E00C94DF058FEC0B
:104F300099E00C94DF058BEC99E00E94DF050C945E
:104F40006A24209107022F5F822F62E30E941E2EA7
:104F5000992319F020930702089510920702809177
:104F600008028823F1F080914E028430C1F49091C0
:104F7000E9009F702091EC00822F817020FD80E875
:104F8000892B93E09093E9009091EB0090FF04C08F
:104F90009091EE0097FD08C08F708093E900109209
:104FA000080208951092F1009091E80095FDFACF63
:104FB0009091E80090FFF0CF9091E8009E77909359
:104FC000E800EACF42E061EC81E00E948A2A42E2F6
:104FD00061EC82E00E948A2A42E261EC83E00C9458
:104FE0008A2A80915002833009F45FC030F4813006
:104FF000C1F1823009F49BC008958A3009F487C05A
:105000008B3009F46DC0893009F04EC080914F0299
:10501000813209F049C08091530290915402029765
:1050200008F042C08091E800877F8093E80080917B
:10503000E80082FF35C09091F3008091F200029762
:1050400029F48091F1008B7F813021F48091F1006F
:10505000809311028091E8008B778093E8000C9494
:10506000BE2A80914F02813AF9F48091E800877F4F
:105070008093E8008091530290915402892B61F44F
:1050800068E089E092E070E00E94CD298091E8001C
:105090008B778093E800089560E090E080E0F3CFA4
:1050A00080914E028111C3CF089580914F02813AC1
:1050B000D9F78091530290915402892BA9F78091DE
:1050C000E800877F8093E8008091E80080FFFCCFB4
:1050D00080911C018093F1008091E8008E77BDCF14
:1050E00080914F02813201F78091530290915402D6
:1050F000892BD1F68091E800877F8093E8000E9499
:10510000BE2A8091510280931C010C94AC1C8091AA
:105110004F02813249F68091E800877F8093E80052
:105120000E94BE2A809152028093120208958091BB
:105130004F02813A09F0B8CF8091E800877F8093D1
:10514000E8008091E80080FFFCCF80911202C2CF7E
:1051500084B7877F84BF0FB6F894A89580916000CC
:10516000886180936000109260000FBE80E8809399
:105170006100109261000E94A8170E940E2B0E94ED
:105180006B2B8091E20084608093E20084E796E2DA
:105190000E94042378940E94F32D0E94B01782E1AC
:1051A00091E00E9411178AEB99E00E94DF0580913F
:1051B0004E02853029F00E94E4170E949215F7CF25
:1051C00086EB99E00E94DF050E941E2480914C022C
:1051D000882369F30E945224882349F30E94682996
:1051E000E6CF0C94F328292F33272330310521F102
:1051F00068F42130310509F449C02230310509F441
:105200004AC090E080E030E020E029C02132310542
:1052100081F122323105A9F76330710590F7FB0166
:10522000EE0FFF1FEB5AFE4F208131816E5A7E4FE9
:10523000FB01808190E013C099278130910599F09E
:10524000009741F08230910589F00397D1F6EFED98
:10525000F9E002C0EBE0FAE0849190E09F01FA01EE
:10526000318320830895E9EFF9E0F6CFE5EEF9E028
:10527000F3CF6330710528F6660F771FFB01E55AFF
:10528000FE4F2081318189E090E0E9CF82E190E01A
:105290002AE63AE0E4CF8BE590E02FE03AE0DFCF7A
:1052A0000895CF93C82F0E945029C0931302CF9125
:1052B000089580914E02843011F482E0089581E0D7
:1052C000089580911302811102C00C945929089508
:1052D00080E189BD82E189BD09B400FEFDCF8091E6
:1052E000D8008F7D8093D8008091E0008260809309
:1052F000E0008091E00081FDFCCF0895AF92BF9265
:10530000CF92DF92FF920F931F93CF93DF936C01A5
:10531000EB018A010E94DD2AF82E811123C00115BC
:10532000110539F0F80180819181C81BD90BC80E95
:10533000D91EB12CA12C2097A9F08091E80085FD01
:1053400022C08091E8008E778093E8000115110556
:10535000A1F0F80180819181A80EB91EB182A082CE
:1053600085E0F82E8F2DDF91CF911F910F91FF9047
:10537000DF90CF90BF90AF9008950E94DD2A8823E0
:10538000D1F2F82EEFCFF60181916F018093F100F9
:105390002197FFEFAF1ABF0ACECFFC0180915502D3
:1053A0009091560286179707A0F06115710529F4B0
:1053B0009091E8009E779093E80090E06115710568
:1053C00051F4911108C08091E80082FF34C080E060
:1053D0000895BC01F2CF80914E028823C1F185303F
:1053E000C1F18091E80083FD30C08091E80082FD2A
:1053F000EACF8091E80080FFE1CF8091F300209117
:10540000F200382F6115710519F02830310558F078
:1054100091E02830310509F090E02091E8002E77E6
:105420002093E800CBCF81918093F1006150710906
:105430002F5F3F4FE7CF80914E02882341F08530A8
:1054400041F08091E80083FFBECF81E0089582E0C3
:10545000089583E00895FC018091550290915602D1
:1054600086179707A0F06115710529F48091E8006F
:105470008E778093E80090E06115710551F49111E9
:1054800008C08091E80082FF35C080E00895BC012B
:10549000F2CF80914E028823C9F18530C9F1809105
:1054A000E80083FD31C08091E80082FDEACF809161
:1054B000E80080FFE1CF8091F3002091F200382FC7
:1054C0006115710519F02830310558F091E0283048
:1054D000310509F090E08091E8008E778093E80034
:1054E000CBCF84918093F1003196615071092F5F89
:1054F0003F4FE6CF80914E02882341F0853041F046
:105500008091E80083FFBDCF81E0089582E0089597
:1055100083E00895982F973028F08F708093E900EA
:1055200081E008959093E900242F762F50E098179A
:1055300031F07091EC002091ED005091F00021FDD0
:1055400002C09F5FE8CF3091EB003E7F3093EB00CD
:105550003091ED003D7F3093ED003091EB003160F4
:105560003093EB007093EC002093ED005093F0002B
:105570002091EE0027FDE5CF80E0089580914F0255
:1055800087FF13C08091E80082FF06C08091E80089
:105590008B778093E80004C080914E028111F2CF96
:1055A000089580914E028823D9F38091E80080FF0E
:1055B000F8CF8091E8008E77ECCF2091E400309115
:1055C000E50095E6A9012091EC00822F817020FF73
:1055D00006C08091E80080FF06C080E00895209119
:1055E000E80022FD1AC080914E02882389F08530A0
:1055F00089F08091EB0085FD0FC02091E40030918F
:10560000E50042175307F9F29150E1F684E008955E
:1056100082E0089583E0089581E008950E947C2B44
:105620000E94842BE0EEF0E0808181608083E8EDD1
:10563000F0E080818F77808319BCA7EDB0E08C917A
:105640008E7F8C9380818F7E808310924D0208958F
:105650000F931F93CF93DF930E947C2B0E94842B88
:10566000C8EDD0E088818F778883888180688883BF
:1056700088818F7D888319BC10924E0210924A0255
:1056800010924C0210924B0200EE10E0F801808163
:105690008B7F808388818160888342E060E080E046
:1056A0000E948A2AE1EEF0E080818E7F8083E2EE24
:1056B000F0E0808181608083808188608083F80150
:1056C00080818E7F8083888180618883DF91CF9104
:1056D0001F910F910895E8EDF0E080818F7E808327
:1056E000E7EDF0E080818160808384E082BF81E02B
:1056F00080934D020C94282BE8EDF0E080818E7FA2
:1057000080831092E20008951092DA001092E10076
:1057100008951F920F920FB60F9211242F933F936B
:105720004F935F936F937F938F939F93AF93BF93A9
:10573000EF93FF938091E10082FF0BC08091E20024
:1057400082FF07C08091E1008B7F8093E1000E947F
:10575000A1278091DA0080FF19C08091D80080FFD6
:1057600015C08091DA008E7F8093DA008091D90095
:1057700080FF96C080E189BD82E189BD09B400FE49
:10578000FDCF81E080934E020E947A278091E10054
:1057900080FF19C08091E20080FF15C08091E20077
:1057A0008E7F8093E2008091E20080618093E2002E
:1057B0008091D80080628093D80019BC85E08093E6
:1057C0004E020E9497278091E10084FF2BC08091B8
:1057D000E20084FF27C080E189BD82E189BD89B5EF
:1057E000982F917080FFFBCF8091D8008F7D8093A0
:1057F000D8008091E1008F7E8093E1008091E200EB
:105800008F7E8093E2008091E20081608093E200CD
:1058100080914A02882309F449C084E080934E02B3
:105820000E949B278091E10083FF29C08091E200C4
:1058300083FF25C08091E100877F8093E10082E0B3
:1058400080934E0210924A028091E1008E7F8093F5
:10585000E1008091E2008E7F8093E2008091E2007F
:1058600080618093E20042E060E080E00E948A2A4A
:105870008091F00088608093F0000E949327FF9150
:10588000EF91BF91AF919F918F917F916F915F91B8
:105890004F913F912F910F900FBE0F901F90189531
:1058A00019BC10924E020E948C2770CF8091E300A9
:1058B00087FD93E090934E02B3CF1F920F920FB6E5
:1058C0000F9211242F933F934F935F936F937F9386
:1058D0008F939F93AF93BF93CF93DF93EF93FF93F8
:1058E000D091E900DF708091EC00C82FC17080FD7D
:1058F000C0E81092E9008091F000877F8093F0006B
:1059000078940E94A12C1092E9008091F0008860A8
:105910008093F000CD2BCF70C093E900FF91EF9101
:10592000DF91CF91BF91AF919F918F917F916F91B7
:105930005F914F913F912F910F900FBE0F901F904D
:1059400018951F93CF93DF93CDB7DEB7AA970FB605
:10595000F894DEBF0FBECDBF8FE492E02091F1003E
:10596000FC012193CF01F2E087359F07B9F70E9430
:10597000F1278091E80083FF1EC180914F02909132
:1059800050029A3008F017C1E92FF0E0E75FF04DC0
:105990000C94742E803899F0823809F00CC18091F3
:1059A00053028F70873008F006C18093E900809120
:1059B000EB0085FB882780F91092E90006C08091F2
:1059C0004B0290914C02911182609091E800977F78
:1059D0009093E8008093F1001092F1008091E8002C
:1059E0008E77E5C0882309F4D3C0823009F0E3C084
:1059F000809151028111D6C0809153028F702FEF98
:105A0000280F263008F0D7C08093E9002091EB00E2
:105A100020FFC8C0933031F48091EB008062809306
:105A2000EB00C0C09091EB0090619093EB0021E0FF
:105A300030E001C0220F8A95EAF72093EA00109225
:105A4000EA008091EB008860EACF8111B4C0109128
:105A500051021F778091E3008078812B8093E300CF
:105A60008091E800877F8093E8000E94BE2A8091A1
:105A7000E80080FFFCCF8091E30080688093E30022
:105A800082E0111183E080934E0295C080588230ED
:105A900008F091C080915102909152028C3D23E018
:105AA0009207A1F583E08A838AE289834FB7F8944D
:105AB000DE01139620E03EE051E2E32FF0E0509348
:105AC0005700E49120FF03C0E295EF703F5FEF7055
:105AD0008E2F90E0EA30C0F0C7968D939D932F5F94
